{
  "abi": [
    {
      "inputs": [
        {
          "internalType": "string",
          "name": "name",
          "type": "string"
        },
        {
          "internalType": "string",
          "name": "symbol",
          "type": "string"
        }
      ],
      "stateMutability": "nonpayable",
      "type": "constructor"
    },
    {
      "inputs": [],
      "name": "ApprovalCallerNotOwnerNorApproved",
      "type": "error"
    },
    {
      "inputs": [],
      "name": "ApprovalQueryForNonexistentToken",
      "type": "error"
    },
    {
      "inputs": [],
      "name": "ApprovalToCurrentOwner",
      "type": "error"
    },
    {
      "inputs": [],
      "name": "ApproveToCaller",
      "type": "error"
    },
    {
      "inputs": [],
      "name": "BalanceQueryForZeroAddress",
      "type": "error"
    },
    {
      "inputs": [],
      "name": "MintToZeroAddress",
      "type": "error"
    },
    {
      "inputs": [],
      "name": "MintZeroQuantity",
      "type": "error"
    },
    {
      "inputs": [],
      "name": "OwnerQueryForNonexistentToken",
      "type": "error"
    },
    {
      "inputs": [],
      "name": "TransferCallerNotOwnerNorApproved",
      "type": "error"
    },
    {
      "inputs": [],
      "name": "TransferFromIncorrectOwner",
      "type": "error"
    },
    {
      "inputs": [],
      "name": "TransferToNonERC721ReceiverImplementer",
      "type": "error"
    },
    {
      "inputs": [],
      "name": "TransferToZeroAddress",
      "type": "error"
    },
    {
      "anonymous": false,
      "inputs": [
        {
          "indexed": true,
          "internalType": "address",
          "name": "owner",
          "type": "address"
        },
        {
          "indexed": true,
          "internalType": "address",
          "name": "approved",
          "type": "address"
        },
        {
          "indexed": true,
          "internalType": "uint256",
          "name": "tokenId",
          "type": "uint256"
        }
      ],
      "name": "Approval",
      "type": "event"
    },
    {
      "anonymous": false,
      "inputs": [
        {
          "indexed": true,
          "internalType": "address",
          "name": "owner",
          "type": "address"
        },
        {
          "indexed": true,
          "internalType": "address",
          "name": "operator",
          "type": "address"
        },
        {
          "indexed": false,
          "internalType": "bool",
          "name": "approved",
          "type": "bool"
        }
      ],
      "name": "ApprovalForAll",
      "type": "event"
    },
    {
      "anonymous": false,
      "inputs": [
        {
          "indexed": true,
          "internalType": "address",
          "name": "to",
          "type": "address"
        },
        {
          "indexed": true,
          "internalType": "address",
          "name": "contractAdddr",
          "type": "address"
        },
        {
          "indexed": true,
          "internalType": "uint256",
          "name": "tokenId",
          "type": "uint256"
        },
        {
          "indexed": false,
          "internalType": "uint256",
          "name": "newTokenId",
          "type": "uint256"
        },
        {
          "indexed": false,
          "internalType": "uint256",
          "name": "amount",
          "type": "uint256"
        }
      ],
      "name": "Mint",
      "type": "event"
    },
    {
      "anonymous": false,
      "inputs": [
        {
          "indexed": true,
          "internalType": "uint256",
          "name": "tokenId",
          "type": "uint256"
        },
        {
          "indexed": false,
          "internalType": "uint256",
          "name": "amount",
          "type": "uint256"
        }
      ],
      "name": "Refund",
      "type": "event"
    },
    {
      "anonymous": false,
      "inputs": [
        {
          "indexed": true,
          "internalType": "address",
          "name": "from",
          "type": "address"
        },
        {
          "indexed": true,
          "internalType": "address",
          "name": "to",
          "type": "address"
        },
        {
          "indexed": true,
          "internalType": "uint256",
          "name": "tokenId",
          "type": "uint256"
        }
      ],
      "name": "Transfer",
      "type": "event"
    },
    {
      "inputs": [
        {
          "internalType": "address",
          "name": "to",
          "type": "address"
        },
        {
          "internalType": "uint256",
          "name": "tokenId",
          "type": "uint256"
        }
      ],
      "name": "approve",
      "outputs": [],
      "stateMutability": "nonpayable",
      "type": "function"
    },
    {
      "inputs": [
        {
          "internalType": "address",
          "name": "owner",
          "type": "address"
        }
      ],
      "name": "balanceOf",
      "outputs": [
        {
          "internalType": "uint256",
          "name": "",
          "type": "uint256"
        }
      ],
      "stateMutability": "view",
      "type": "function"
    },
    {
      "inputs": [],
      "name": "calcMintPrice",
      "outputs": [
        {
          "internalType": "uint256",
          "name": "",
          "type": "uint256"
        }
      ],
      "stateMutability": "view",
      "type": "function"
    },
    {
      "inputs": [
        {
          "internalType": "uint256",
          "name": "",
          "type": "uint256"
        }
      ],
      "name": "etherBalances",
      "outputs": [
        {
          "internalType": "uint256",
          "name": "",
          "type": "uint256"
        }
      ],
      "stateMutability": "view",
      "type": "function"
    },
    {
      "inputs": [
        {
          "internalType": "uint256",
          "name": "tokenId",
          "type": "uint256"
        }
      ],
      "name": "exists",
      "outputs": [
        {
          "internalType": "bool",
          "name": "",
          "type": "bool"
        }
      ],
      "stateMutability": "view",
      "type": "function"
    },
    {
      "inputs": [
        {
          "internalType": "uint256",
          "name": "tokenId",
          "type": "uint256"
        }
      ],
      "name": "getApproved",
      "outputs": [
        {
          "internalType": "address",
          "name": "",
          "type": "address"
        }
      ],
      "stateMutability": "view",
      "type": "function"
    },
    {
      "inputs": [
        {
          "internalType": "address",
          "name": "owner",
          "type": "address"
        },
        {
          "internalType": "address",
          "name": "operator",
          "type": "address"
        }
      ],
      "name": "isApprovedForAll",
      "outputs": [
        {
          "internalType": "bool",
          "name": "",
          "type": "bool"
        }
      ],
      "stateMutability": "view",
      "type": "function"
    },
    {
      "inputs": [
        {
          "internalType": "address",
          "name": "to",
          "type": "address"
        },
        {
          "internalType": "address",
          "name": "contractAddr",
          "type": "address"
        },
        {
          "internalType": "uint256",
          "name": "tokenId",
          "type": "uint256"
        }
      ],
      "name": "mint",
      "outputs": [
        {
          "internalType": "uint256",
          "name": "",
          "type": "uint256"
        }
      ],
      "stateMutability": "payable",
      "type": "function"
    },
    {
      "inputs": [],
      "name": "name",
      "outputs": [
        {
          "internalType": "string",
          "name": "",
          "type": "string"
        }
      ],
      "stateMutability": "view",
      "type": "function"
    },
    {
      "inputs": [
        {
          "internalType": "uint256",
          "name": "tokenId",
          "type": "uint256"
        }
      ],
      "name": "ownerOf",
      "outputs": [
        {
          "internalType": "address",
          "name": "",
          "type": "address"
        }
      ],
      "stateMutability": "view",
      "type": "function"
    },
    {
      "inputs": [
        {
          "internalType": "uint256",
          "name": "tokenId",
          "type": "uint256"
        }
      ],
      "name": "refund",
      "outputs": [],
      "stateMutability": "nonpayable",
      "type": "function"
    },
    {
      "inputs": [
        {
          "internalType": "address",
          "name": "from",
          "type": "address"
        },
        {
          "internalType": "address",
          "name": "to",
          "type": "address"
        },
        {
          "internalType": "uint256",
          "name": "tokenId",
          "type": "uint256"
        }
      ],
      "name": "safeTransferFrom",
      "outputs": [],
      "stateMutability": "nonpayable",
      "type": "function"
    },
    {
      "inputs": [
        {
          "internalType": "address",
          "name": "from",
          "type": "address"
        },
        {
          "internalType": "address",
          "name": "to",
          "type": "address"
        },
        {
          "internalType": "uint256",
          "name": "tokenId",
          "type": "uint256"
        },
        {
          "internalType": "bytes",
          "name": "_data",
          "type": "bytes"
        }
      ],
      "name": "safeTransferFrom",
      "outputs": [],
      "stateMutability": "nonpayable",
      "type": "function"
    },
    {
      "inputs": [
        {
          "internalType": "address",
          "name": "operator",
          "type": "address"
        },
        {
          "internalType": "bool",
          "name": "approved",
          "type": "bool"
        }
      ],
      "name": "setApprovalForAll",
      "outputs": [],
      "stateMutability": "nonpayable",
      "type": "function"
    },
    {
      "inputs": [
        {
          "internalType": "bytes4",
          "name": "interfaceId",
          "type": "bytes4"
        }
      ],
      "name": "supportsInterface",
      "outputs": [
        {
          "internalType": "bool",
          "name": "",
          "type": "bool"
        }
      ],
      "stateMutability": "view",
      "type": "function"
    },
    {
      "inputs": [],
      "name": "symbol",
      "outputs": [
        {
          "internalType": "string",
          "name": "",
          "type": "string"
        }
      ],
      "stateMutability": "view",
      "type": "function"
    },
    {
      "inputs": [
        {
          "internalType": "uint256",
          "name": "",
          "type": "uint256"
        }
      ],
      "name": "tokenIdToContract",
      "outputs": [
        {
          "internalType": "address",
          "name": "",
          "type": "address"
        }
      ],
      "stateMutability": "view",
      "type": "function"
    },
    {
      "inputs": [
        {
          "internalType": "uint256",
          "name": "",
          "type": "uint256"
        }
      ],
      "name": "tokenIdToOriTokenId",
      "outputs": [
        {
          "internalType": "uint256",
          "name": "",
          "type": "uint256"
        }
      ],
      "stateMutability": "view",
      "type": "function"
    },
    {
      "inputs": [
        {
          "internalType": "uint256",
          "name": "tokenId",
          "type": "uint256"
        }
      ],
      "name": "tokenURI",
      "outputs": [
        {
          "internalType": "string",
          "name": "",
          "type": "string"
        }
      ],
      "stateMutability": "view",
      "type": "function"
    },
    {
      "inputs": [],
      "name": "totalSupply",
      "outputs": [
        {
          "internalType": "uint256",
          "name": "",
          "type": "uint256"
        }
      ],
      "stateMutability": "view",
      "type": "function"
    },
    {
      "inputs": [
        {
          "internalType": "address",
          "name": "from",
          "type": "address"
        },
        {
          "internalType": "address",
          "name": "to",
          "type": "address"
        },
        {
          "internalType": "uint256",
          "name": "tokenId",
          "type": "uint256"
        }
      ],
      "name": "transferFrom",
      "outputs": [],
      "stateMutability": "nonpayable",
      "type": "function"
    },
    {
      "inputs": [
        {
          "internalType": "address",
          "name": "",
          "type": "address"
        },
        {
          "internalType": "uint256",
          "name": "",
          "type": "uint256"
        }
      ],
      "name": "uniques",
      "outputs": [
        {
          "internalType": "uint256",
          "name": "",
          "type": "uint256"
        }
      ],
      "stateMutability": "view",
      "type": "function"
    }
  ],
  "bytecode": {
    "object": "0x60806040523480156200001157600080fd5b5060405162002450380380620024508339810160408190526200003491620001e7565b8151829082906200004d90600290602085019062000074565b5080516200006390600390602084019062000074565b506001600055506200028d92505050565b828054620000829062000251565b90600052602060002090601f016020900481019282620000a65760008555620000f1565b82601f10620000c157805160ff1916838001178555620000f1565b82800160010185558215620000f1579182015b82811115620000f1578251825591602001919060010190620000d4565b50620000ff92915062000103565b5090565b5b80821115620000ff576000815560010162000104565b634e487b7160e01b600052604160045260246000fd5b600082601f8301126200014257600080fd5b81516001600160401b03808211156200015f576200015f6200011a565b604051601f8301601f19908116603f011681019082821181831017156200018a576200018a6200011a565b81604052838152602092508683858801011115620001a757600080fd5b600091505b83821015620001cb5785820183015181830184015290820190620001ac565b83821115620001dd5760008385830101525b9695505050505050565b60008060408385031215620001fb57600080fd5b82516001600160401b03808211156200021357600080fd5b620002218683870162000130565b935060208501519150808211156200023857600080fd5b50620002478582860162000130565b9150509250929050565b600181811c908216806200026657607f821691505b6020821081036200028757634e487b7160e01b600052602260045260246000fd5b50919050565b6121b3806200029d6000396000f3fe6080604052600436106101355760003560e01c80634f558e79116100ab5780639edfe1c91161006f5780639edfe1c91461039b578063a22cb465146103c8578063b88d4fde146103e8578063c6c3bbe614610408578063c87b56dd1461041b578063e985e9c51461043b57600080fd5b80634f558e79146103115780636352211e1461033157806370a082311461035157806380f7b38b1461037157806395d89b411461038657600080fd5b8063108a6727116100fd578063108a67271461023157806313ef64871461025e57806318160ddd1461029457806323b872dd146102b1578063278ecde1146102d157806342842e0e146102f157600080fd5b806301ffc9a71461013a5780630277c85c1461016f57806306fdde03146101b5578063081812fc146101d7578063095ea7b31461020f575b600080fd5b34801561014657600080fd5b5061015a610155366004611cab565b610484565b60405190151581526020015b60405180910390f35b34801561017b57600080fd5b506101a761018a366004611ce4565b600a60209081526000928352604080842090915290825290205481565b604051908152602001610166565b3480156101c157600080fd5b506101ca6104d6565b6040516101669190611d66565b3480156101e357600080fd5b506101f76101f2366004611d79565b610568565b6040516001600160a01b039091168152602001610166565b34801561021b57600080fd5b5061022f61022a366004611ce4565b6105ac565b005b34801561023d57600080fd5b506101a761024c366004611d79565b60096020526000908152604090205481565b34801561026a57600080fd5b506101f7610279366004611d79565b6008602052600090815260409020546001600160a01b031681565b3480156102a057600080fd5b5060015460005403600019016101a7565b3480156102bd57600080fd5b5061022f6102cc366004611d92565b610639565b3480156102dd57600080fd5b5061022f6102ec366004611d79565b610644565b3480156102fd57600080fd5b5061022f61030c366004611d92565b6107cc565b34801561031d57600080fd5b5061015a61032c366004611d79565b6107e7565b34801561033d57600080fd5b506101f761034c366004611d79565b6107f2565b34801561035d57600080fd5b506101a761036c366004611dce565b610804565b34801561037d57600080fd5b506101a7610852565b34801561039257600080fd5b506101ca61089a565b3480156103a757600080fd5b506101a76103b6366004611d79565b600b6020526000908152604090205481565b3480156103d457600080fd5b5061022f6103e3366004611df7565b6108a9565b3480156103f457600080fd5b5061022f610403366004611e9b565b61093e565b6101a7610416366004611d92565b61098f565b34801561042757600080fd5b506101ca610436366004611d79565b610baa565b34801561044757600080fd5b5061015a610456366004611f45565b6001600160a01b03918216600090815260076020908152604080832093909416825291909152205460ff1690565b60006001600160e01b031982166380ac58cd60e01b14806104b557506001600160e01b03198216635b5e139f60e01b145b806104d057506301ffc9a760e01b6001600160e01b03198316145b92915050565b6060600280546104e590611f78565b80601f016020809104026020016040519081016040528092919081815260200182805461051190611f78565b801561055e5780601f106105335761010080835404028352916020019161055e565b820191906000526020600020905b81548152906001019060200180831161054157829003601f168201915b5050505050905090565b600061057382610e70565b610590576040516333d1c03960e21b815260040160405180910390fd5b506000908152600660205260409020546001600160a01b031690565b60006105b7826107f2565b9050806001600160a01b0316836001600160a01b0316036105eb5760405163250fdee360e21b815260040160405180910390fd5b336001600160a01b0382161480159061060b57506106098133610456565b155b15610629576040516367d9dca160e11b815260040160405180910390fd5b610634838383610ea9565b505050565b610634838383610f05565b61064d81610e70565b6106ae5760405162461bcd60e51b815260206004820152602760248201527f5269676874436c696b3a20726566756e6420666f72206e6f6e6578697374656e6044820152663a103a37b5b2b760c91b60648201526084015b60405180910390fd5b336106b8826107f2565b6001600160a01b03161461070e5760405162461bcd60e51b815260206004820152601960248201527f5269676874436c696b3a206d757374206f776e20746f6b656e0000000000000060448201526064016106a5565b610717816110f2565b6000818152600b6020818152604080842080546008845282862080546009865284882080546001600160a01b03909216808a52600a8852868a20838b52885295892089905589895282546001600160a01b0319169092559087905594909352939093559190821561078c5761078c3384611100565b837f5eee8032448a7f1556f67b8a76a4dcfd75ff98c05198df9f420467d0a1234e38846040516107be91815260200190565b60405180910390a250505050565b6106348383836040518060200160405280600081525061093e565b60006104d082610e70565b60006107fd82611219565b5192915050565b60006001600160a01b03821661082d576040516323d3ad8160e21b815260040160405180910390fd5b506001600160a01b03166000908152600560205260409020546001600160401b031690565b6000806108686001546000546000199190030190565b905080610879816305f5e100611fc8565b6108839190611fc8565b6108949066038d7ea4c68000611fe7565b91505090565b6060600380546104e590611f78565b336001600160a01b038316036108d25760405163b06307db60e01b815260040160405180910390fd5b3360008181526007602090815260408083206001600160a01b03871680855290835292819020805460ff191686151590811790915590519081529192917f17307eab39ab6107e8899845ad3d59bd9653f200f220920489ca2b5937696c31910160405180910390a35050565b610949848484610f05565b6001600160a01b0383163b1515801561096b575061096984848484611340565b155b15610989576040516368d2bf6b60e11b815260040160405180910390fd5b50505050565b60008061099a610852565b9050803410156109ec5760405162461bcd60e51b815260206004820152601d60248201527f5269676874436c696b3a20696e73756666696369656e7420657468657200000060448201526064016106a5565b6001600160a01b0384166000908152600a6020908152604080832086845290915290205415610a5d5760405162461bcd60e51b815260206004820152601960248201527f5269676874436c696b3a20616c7265616479206d696e7465640000000000000060448201526064016106a5565b60015460005461c3509190036000190110610ac55760405162461bcd60e51b815260206004820152602260248201527f5269676874436c696b3a20616c7265616479206d617820746f74616c537570706044820152616c7960f01b60648201526084016106a5565b600080546001600160a01b038616808352600a6020908152604080852088865282528085208490558385526008825280852080546001600160a01b031916909317909255600990529091208490553415610b3d576000818152600b602052604081208054349290610b37908490611fe7565b90915550505b610b4886600161142c565b83856001600160a01b0316876001600160a01b03167f458f5fa412d0f69b08dd84872b0215675cc67bc1d5b6fd93300a1c3878b861968434604051610b97929190918252602082015260400190565b60405180910390a49150505b9392505050565b6060610bb582610e70565b610c145760405162461bcd60e51b815260206004820152602a60248201527f5269676874436c696b3a2055524920717565727920666f72206e6f6e657869736044820152693a32b73a103a37b5b2b760b11b60648201526084016106a5565b6000828152600860209081526040808320546009909252918290205491516301ffc9a760e01b8152636cdb3d1360e11b60048201526001600160a01b0390911691829160609083906301ffc9a790602401602060405180830381865afa158015610c82573d6000803e3d6000fd5b505050506040513d601f19601f82011682018060405250810190610ca69190611fff565b15610d20576040516303a24d0760e21b8152600481018390526001600160a01b03841690630e89341c906024015b600060405180830381865afa158015610cf1573d6000803e3d6000fd5b505050506040513d6000823e601f3d908101601f19168201604052610d19919081019061201c565b9050610e09565b6040516301ffc9a760e01b81526380ac58cd60e01b60048201526001600160a01b038516906301ffc9a790602401602060405180830381865afa158015610d6b573d6000803e3d6000fd5b505050506040513d601f19601f82011682018060405250810190610d8f9190611fff565b15610dc15760405163c87b56dd60e01b8152600481018390526001600160a01b0384169063c87b56dd90602401610cd4565b60405162461bcd60e51b815260206004820152601e60248201527f6f6e6c7920737570706f727420373231206f72203131353520746f6b656e000060448201526064016106a5565b610e3a816040518060400160405280600681526020016530787b69647d60d01b815250610e358561155e565b6115b5565b9050610e6681604051806040016040528060048152602001637b69647d60e01b815250610e3585611793565b9695505050505050565b600081600111158015610e84575060005482105b80156104d0575050600090815260046020526040902054600160e01b900460ff161590565b60008281526006602052604080822080546001600160a01b0319166001600160a01b0387811691821790925591518593918516917f8c5be1e5ebec7d5bd14f71427d1e84f3dd0314c0f7b2291e5b200ac8c7c3b92591a4505050565b6000610f1082611219565b9050836001600160a01b031681600001516001600160a01b031614610f475760405162a1148160e81b815260040160405180910390fd5b6000336001600160a01b0386161480610f655750610f658533610456565b80610f80575033610f7584610568565b6001600160a01b0316145b905080610fa057604051632ce44b5f60e11b815260040160405180910390fd5b6001600160a01b038416610fc757604051633a954ecd60e21b815260040160405180910390fd5b610fd360008487610ea9565b6001600160a01b038581166000908152600560209081526040808320805467ffffffffffffffff198082166001600160401b0392831660001901831617909255898616808652838620805493841693831660019081018416949094179055898652600490945282852080546001600160e01b031916909417600160a01b429092169190910217835587018084529220805491939091166110a75760005482146110a757805460208601516001600160401b0316600160a01b026001600160e01b03199091166001600160a01b038a16171781555b50505082846001600160a01b0316866001600160a01b03167fddf252ad1be2c89b69c2b068fc378daa952ba7f163c4a11628f55a4df523b3ef60405160405180910390a45050505050565b6110fd816000611893565b50565b804710156111505760405162461bcd60e51b815260206004820152601d60248201527f416464726573733a20696e73756666696369656e742062616c616e636500000060448201526064016106a5565b6000826001600160a01b03168260405160006040518083038185875af1925050503d806000811461119d576040519150601f19603f3d011682016040523d82523d6000602084013e6111a2565b606091505b50509050806106345760405162461bcd60e51b815260206004820152603a60248201527f416464726573733a20756e61626c6520746f2073656e642076616c75652c207260448201527f6563697069656e74206d6179206861766520726576657274656400000000000060648201526084016106a5565b60408051606081018252600080825260208201819052918101919091528180600111158015611249575060005481105b1561132757600081815260046020908152604091829020825160608101845290546001600160a01b0381168252600160a01b81046001600160401b031692820192909252600160e01b90910460ff161515918101829052906113255780516001600160a01b0316156112bc579392505050565b5060001901600081815260046020908152604091829020825160608101845290546001600160a01b038116808352600160a01b82046001600160401b031693830193909352600160e01b900460ff1615159281019290925215611320579392505050565b6112bc565b505b604051636f96cda160e11b815260040160405180910390fd5b604051630a85bd0160e11b81526000906001600160a01b0385169063150b7a0290611375903390899088908890600401612092565b6020604051808303816000875af19250505080156113b0575060408051601f3d908101601f191682019092526113ad918101906120c5565b60015b61140e573d8080156113de576040519150601f19603f3d011682016040523d82523d6000602084013e6113e3565b606091505b508051600003611406576040516368d2bf6b60e11b815260040160405180910390fd5b805181602001fd5b6001600160e01b031916630a85bd0160e11b1490505b949350505050565b6000546001600160a01b03831661145557604051622e076360e81b815260040160405180910390fd5b816000036114765760405163b562e8dd60e01b815260040160405180910390fd5b6001600160a01b038316600081815260056020908152604080832080546fffffffffffffffffffffffffffffffff1981166001600160401b038083168a0181169182176801000000000000000067ffffffffffffffff1990941690921783900481168a01811690920217909155858452600490925290912080546001600160e01b031916909217600160a01b4290921691909102179055808083015b6040516001830192906001600160a01b038716906000907fddf252ad1be2c89b69c2b068fc378daa952ba7f163c4a11628f55a4df523b3ef908290a48082036115125750600055505050565b6060816000036115885750506040805180820190915260048152630307830360e41b602082015290565b8160005b81156115ab578061159c816120e2565b915050600882901c915061158c565b6114248482611a58565b60608383836000805b8451811015611624576115d2858286611bf3565b156116045782516115e39083611fe7565b9150600184516115f391906120fb565b6115fd9082611fe7565b9050611612565b8161160e816120e2565b9250505b8061161c816120e2565b9150506115be565b506000816001600160401b0381111561163f5761163f611e2e565b6040519080825280601f01601f191660200182016040528015611669576020820181803683370190505b5090506000805b865181101561178457611684878288611bf3565b1561171c5760005b85518110156116fc578581815181106116a7576116a7612112565b01602001516001600160f81b03191684846116c1816120e2565b9550815181106116d3576116d3612112565b60200101906001600160f81b031916908160001a905350806116f4816120e2565b91505061168c565b506001865161170b91906120fb565b6117159082611fe7565b9050611772565b86818151811061172e5761172e612112565b01602001516001600160f81b0319168383611748816120e2565b94508151811061175a5761175a612112565b60200101906001600160f81b031916908160001a9053505b8061177c816120e2565b915050611670565b50909998505050505050505050565b6060816000036117ba5750506040805180820190915260018152600360fc1b602082015290565b8160005b81156117e457806117ce816120e2565b91506117dd9050600a8361213e565b91506117be565b6000816001600160401b038111156117fe576117fe611e2e565b6040519080825280601f01601f191660200182016040528015611828576020820181803683370190505b5090505b84156114245761183d6001836120fb565b915061184a600a86612152565b611855906030611fe7565b60f81b81838151811061186a5761186a612112565b60200101906001600160f81b031916908160001a90535061188c600a8661213e565b945061182c565b600061189e83611219565b80519091508215611904576000336001600160a01b03831614806118c757506118c78233610456565b806118e25750336118d786610568565b6001600160a01b0316145b90508061190257604051632ce44b5f60e11b815260040160405180910390fd5b505b61191060008583610ea9565b6001600160a01b0380821660008181526005602090815260408083208054600160801b6000196001600160401b0380841691909101811667ffffffffffffffff198416811783900482166001908101831690930277ffffffffffffffff0000000000000000ffffffffffffffff19909416179290921783558b86526004909452828520805460ff60e01b1942909316600160a01b026001600160e01b03199091169097179690961716600160e01b178555918901808452922080549194909116611a0e576000548214611a0e57805460208701516001600160401b0316600160a01b026001600160e01b03199091166001600160a01b038716171781555b5050604051869250600091506001600160a01b038416907fddf252ad1be2c89b69c2b068fc378daa952ba7f163c4a11628f55a4df523b3ef908390a4505060018054810190555050565b60606000611a67836002611fc8565b611a72906002611fe7565b6001600160401b03811115611a8957611a89611e2e565b6040519080825280601f01601f191660200182016040528015611ab3576020820181803683370190505b509050600360fc1b81600081518110611ace57611ace612112565b60200101906001600160f81b031916908160001a905350600f60fb1b81600181518110611afd57611afd612112565b60200101906001600160f81b031916908160001a9053506000611b21846002611fc8565b611b2c906001611fe7565b90505b6001811115611ba4576f181899199a1a9b1b9c1cb0b131b232b360811b85600f1660108110611b6057611b60612112565b1a60f81b828281518110611b7657611b76612112565b60200101906001600160f81b031916908160001a90535060049490941c93611b9d81612166565b9050611b2f565b508315610ba35760405162461bcd60e51b815260206004820181905260248201527f537472696e67733a20686578206c656e67746820696e73756666696369656e7460448201526064016106a5565b60008151838551611c0491906120fb565b1015611c1257506000610ba3565b60005b8251811015611c8a57828181518110611c3057611c30612112565b01602001516001600160f81b03191685611c4a8684611fe7565b81518110611c5a57611c5a612112565b01602001516001600160f81b03191614611c78576000915050610ba3565b80611c82816120e2565b915050611c15565b506001949350505050565b6001600160e01b0319811681146110fd57600080fd5b600060208284031215611cbd57600080fd5b8135610ba381611c95565b80356001600160a01b0381168114611cdf57600080fd5b919050565b60008060408385031215611cf757600080fd5b611d0083611cc8565b946020939093013593505050565b60005b83811015611d29578181015183820152602001611d11565b838111156109895750506000910152565b60008151808452611d52816020860160208601611d0e565b601f01601f19169290920160200192915050565b602081526000610ba36020830184611d3a565b600060208284031215611d8b57600080fd5b5035919050565b600080600060608486031215611da757600080fd5b611db084611cc8565b9250611dbe60208501611cc8565b9150604084013590509250925092565b600060208284031215611de057600080fd5b610ba382611cc8565b80151581146110fd57600080fd5b60008060408385031215611e0a57600080fd5b611e1383611cc8565b91506020830135611e2381611de9565b809150509250929050565b634e487b7160e01b600052604160045260246000fd5b604051601f8201601f191681016001600160401b0381118282101715611e6c57611e6c611e2e565b604052919050565b60006001600160401b03821115611e8d57611e8d611e2e565b50601f01601f191660200190565b60008060008060808587031215611eb157600080fd5b611eba85611cc8565b9350611ec860208601611cc8565b92506040850135915060608501356001600160401b03811115611eea57600080fd5b8501601f81018713611efb57600080fd5b8035611f0e611f0982611e74565b611e44565b818152886020838501011115611f2357600080fd5b8160208401602083013760006020838301015280935050505092959194509250565b60008060408385031215611f5857600080fd5b611f6183611cc8565b9150611f6f60208401611cc8565b90509250929050565b600181811c90821680611f8c57607f821691505b602082108103611fac57634e487b7160e01b600052602260045260246000fd5b50919050565b634e487b7160e01b600052601160045260246000fd5b6000816000190483118215151615611fe257611fe2611fb2565b500290565b60008219821115611ffa57611ffa611fb2565b500190565b60006020828403121561201157600080fd5b8151610ba381611de9565b60006020828403121561202e57600080fd5b81516001600160401b0381111561204457600080fd5b8201601f8101841361205557600080fd5b8051612063611f0982611e74565b81815285602083850101111561207857600080fd5b612089826020830160208601611d0e565b95945050505050565b6001600160a01b0385811682528416602082015260408101839052608060608201819052600090610e6690830184611d3a565b6000602082840312156120d757600080fd5b8151610ba381611c95565b6000600182016120f4576120f4611fb2565b5060010190565b60008282101561210d5761210d611fb2565b500390565b634e487b7160e01b600052603260045260246000fd5b634e487b7160e01b600052601260045260246000fd5b60008261214d5761214d612128565b500490565b60008261216157612161612128565b500690565b60008161217557612175611fb2565b50600019019056fea2646970667358221220ca65ef45c340a1891b3aafa7b767575a2e850445e172d906b3d0e77da307a62e64736f6c634300080d0033",
    "linkReferences": {}
  }
}