{
  "abi": [
    {
      "inputs": [
        {
          "internalType": "string",
          "name": "name",
          "type": "string"
        },
        {
          "internalType": "string",
          "name": "symbol",
          "type": "string"
        }
      ],
      "stateMutability": "nonpayable",
      "type": "constructor"
    },
    {
      "inputs": [],
      "name": "ApprovalCallerNotOwnerNorApproved",
      "type": "error"
    },
    {
      "inputs": [],
      "name": "ApprovalQueryForNonexistentToken",
      "type": "error"
    },
    {
      "inputs": [],
      "name": "ApprovalToCurrentOwner",
      "type": "error"
    },
    {
      "inputs": [],
      "name": "ApproveToCaller",
      "type": "error"
    },
    {
      "inputs": [],
      "name": "BalanceQueryForZeroAddress",
      "type": "error"
    },
    {
      "inputs": [],
      "name": "MintToZeroAddress",
      "type": "error"
    },
    {
      "inputs": [],
      "name": "MintZeroQuantity",
      "type": "error"
    },
    {
      "inputs": [],
      "name": "OwnerQueryForNonexistentToken",
      "type": "error"
    },
    {
      "inputs": [],
      "name": "TransferCallerNotOwnerNorApproved",
      "type": "error"
    },
    {
      "inputs": [],
      "name": "TransferFromIncorrectOwner",
      "type": "error"
    },
    {
      "inputs": [],
      "name": "TransferToNonERC721ReceiverImplementer",
      "type": "error"
    },
    {
      "inputs": [],
      "name": "TransferToZeroAddress",
      "type": "error"
    },
    {
      "anonymous": false,
      "inputs": [
        {
          "indexed": true,
          "internalType": "address",
          "name": "owner",
          "type": "address"
        },
        {
          "indexed": true,
          "internalType": "address",
          "name": "approved",
          "type": "address"
        },
        {
          "indexed": true,
          "internalType": "uint256",
          "name": "tokenId",
          "type": "uint256"
        }
      ],
      "name": "Approval",
      "type": "event"
    },
    {
      "anonymous": false,
      "inputs": [
        {
          "indexed": true,
          "internalType": "address",
          "name": "owner",
          "type": "address"
        },
        {
          "indexed": true,
          "internalType": "address",
          "name": "operator",
          "type": "address"
        },
        {
          "indexed": false,
          "internalType": "bool",
          "name": "approved",
          "type": "bool"
        }
      ],
      "name": "ApprovalForAll",
      "type": "event"
    },
    {
      "anonymous": false,
      "inputs": [
        {
          "indexed": true,
          "internalType": "address",
          "name": "to",
          "type": "address"
        },
        {
          "indexed": true,
          "internalType": "address",
          "name": "contractAdddr",
          "type": "address"
        },
        {
          "indexed": true,
          "internalType": "uint256",
          "name": "tokenId",
          "type": "uint256"
        },
        {
          "indexed": false,
          "internalType": "uint256",
          "name": "newTokenId",
          "type": "uint256"
        },
        {
          "indexed": false,
          "internalType": "uint256",
          "name": "amount",
          "type": "uint256"
        }
      ],
      "name": "Mint",
      "type": "event"
    },
    {
      "anonymous": false,
      "inputs": [
        {
          "indexed": true,
          "internalType": "uint256",
          "name": "tokenId",
          "type": "uint256"
        },
        {
          "indexed": false,
          "internalType": "uint256",
          "name": "amount",
          "type": "uint256"
        }
      ],
      "name": "Refund",
      "type": "event"
    },
    {
      "anonymous": false,
      "inputs": [
        {
          "indexed": true,
          "internalType": "address",
          "name": "from",
          "type": "address"
        },
        {
          "indexed": true,
          "internalType": "address",
          "name": "to",
          "type": "address"
        },
        {
          "indexed": true,
          "internalType": "uint256",
          "name": "tokenId",
          "type": "uint256"
        }
      ],
      "name": "Transfer",
      "type": "event"
    },
    {
      "inputs": [
        {
          "internalType": "uint256",
          "name": "",
          "type": "uint256"
        }
      ],
      "name": "_etherBalances",
      "outputs": [
        {
          "internalType": "uint256",
          "name": "",
          "type": "uint256"
        }
      ],
      "stateMutability": "view",
      "type": "function"
    },
    {
      "inputs": [
        {
          "internalType": "uint256",
          "name": "",
          "type": "uint256"
        }
      ],
      "name": "_tokenIdToContract",
      "outputs": [
        {
          "internalType": "address",
          "name": "",
          "type": "address"
        }
      ],
      "stateMutability": "view",
      "type": "function"
    },
    {
      "inputs": [
        {
          "internalType": "uint256",
          "name": "",
          "type": "uint256"
        }
      ],
      "name": "_tokenIdToOriTokenId",
      "outputs": [
        {
          "internalType": "uint256",
          "name": "",
          "type": "uint256"
        }
      ],
      "stateMutability": "view",
      "type": "function"
    },
    {
      "inputs": [
        {
          "internalType": "address",
          "name": "",
          "type": "address"
        },
        {
          "internalType": "uint256",
          "name": "",
          "type": "uint256"
        }
      ],
      "name": "_uniques",
      "outputs": [
        {
          "internalType": "uint256",
          "name": "",
          "type": "uint256"
        }
      ],
      "stateMutability": "view",
      "type": "function"
    },
    {
      "inputs": [
        {
          "internalType": "address",
          "name": "to",
          "type": "address"
        },
        {
          "internalType": "uint256",
          "name": "tokenId",
          "type": "uint256"
        }
      ],
      "name": "approve",
      "outputs": [],
      "stateMutability": "nonpayable",
      "type": "function"
    },
    {
      "inputs": [
        {
          "internalType": "address",
          "name": "owner",
          "type": "address"
        }
      ],
      "name": "balanceOf",
      "outputs": [
        {
          "internalType": "uint256",
          "name": "",
          "type": "uint256"
        }
      ],
      "stateMutability": "view",
      "type": "function"
    },
    {
      "inputs": [],
      "name": "calcMintPrice",
      "outputs": [
        {
          "internalType": "uint256",
          "name": "",
          "type": "uint256"
        }
      ],
      "stateMutability": "view",
      "type": "function"
    },
    {
      "inputs": [
        {
          "internalType": "uint256",
          "name": "tokenId",
          "type": "uint256"
        }
      ],
      "name": "exists",
      "outputs": [
        {
          "internalType": "bool",
          "name": "",
          "type": "bool"
        }
      ],
      "stateMutability": "view",
      "type": "function"
    },
    {
      "inputs": [
        {
          "internalType": "uint256",
          "name": "tokenId",
          "type": "uint256"
        }
      ],
      "name": "getApproved",
      "outputs": [
        {
          "internalType": "address",
          "name": "",
          "type": "address"
        }
      ],
      "stateMutability": "view",
      "type": "function"
    },
    {
      "inputs": [
        {
          "internalType": "address",
          "name": "contractAddr",
          "type": "address"
        },
        {
          "internalType": "uint256",
          "name": "tokenId",
          "type": "uint256"
        }
      ],
      "name": "getTokenId",
      "outputs": [
        {
          "internalType": "uint256",
          "name": "",
          "type": "uint256"
        }
      ],
      "stateMutability": "view",
      "type": "function"
    },
    {
      "inputs": [
        {
          "internalType": "address",
          "name": "owner",
          "type": "address"
        },
        {
          "internalType": "address",
          "name": "operator",
          "type": "address"
        }
      ],
      "name": "isApprovedForAll",
      "outputs": [
        {
          "internalType": "bool",
          "name": "",
          "type": "bool"
        }
      ],
      "stateMutability": "view",
      "type": "function"
    },
    {
      "inputs": [
        {
          "internalType": "address",
          "name": "to",
          "type": "address"
        },
        {
          "internalType": "address",
          "name": "contractAddr",
          "type": "address"
        },
        {
          "internalType": "uint256",
          "name": "tokenId",
          "type": "uint256"
        }
      ],
      "name": "mint",
      "outputs": [
        {
          "internalType": "uint256",
          "name": "",
          "type": "uint256"
        }
      ],
      "stateMutability": "payable",
      "type": "function"
    },
    {
      "inputs": [],
      "name": "name",
      "outputs": [
        {
          "internalType": "string",
          "name": "",
          "type": "string"
        }
      ],
      "stateMutability": "view",
      "type": "function"
    },
    {
      "inputs": [
        {
          "internalType": "uint256",
          "name": "tokenId",
          "type": "uint256"
        }
      ],
      "name": "ownerOf",
      "outputs": [
        {
          "internalType": "address",
          "name": "",
          "type": "address"
        }
      ],
      "stateMutability": "view",
      "type": "function"
    },
    {
      "inputs": [
        {
          "internalType": "uint256",
          "name": "tokenId",
          "type": "uint256"
        }
      ],
      "name": "refund",
      "outputs": [],
      "stateMutability": "nonpayable",
      "type": "function"
    },
    {
      "inputs": [
        {
          "internalType": "address",
          "name": "from",
          "type": "address"
        },
        {
          "internalType": "address",
          "name": "to",
          "type": "address"
        },
        {
          "internalType": "uint256",
          "name": "tokenId",
          "type": "uint256"
        }
      ],
      "name": "safeTransferFrom",
      "outputs": [],
      "stateMutability": "nonpayable",
      "type": "function"
    },
    {
      "inputs": [
        {
          "internalType": "address",
          "name": "from",
          "type": "address"
        },
        {
          "internalType": "address",
          "name": "to",
          "type": "address"
        },
        {
          "internalType": "uint256",
          "name": "tokenId",
          "type": "uint256"
        },
        {
          "internalType": "bytes",
          "name": "_data",
          "type": "bytes"
        }
      ],
      "name": "safeTransferFrom",
      "outputs": [],
      "stateMutability": "nonpayable",
      "type": "function"
    },
    {
      "inputs": [
        {
          "internalType": "address",
          "name": "operator",
          "type": "address"
        },
        {
          "internalType": "bool",
          "name": "approved",
          "type": "bool"
        }
      ],
      "name": "setApprovalForAll",
      "outputs": [],
      "stateMutability": "nonpayable",
      "type": "function"
    },
    {
      "inputs": [
        {
          "internalType": "bytes4",
          "name": "interfaceId",
          "type": "bytes4"
        }
      ],
      "name": "supportsInterface",
      "outputs": [
        {
          "internalType": "bool",
          "name": "",
          "type": "bool"
        }
      ],
      "stateMutability": "view",
      "type": "function"
    },
    {
      "inputs": [],
      "name": "symbol",
      "outputs": [
        {
          "internalType": "string",
          "name": "",
          "type": "string"
        }
      ],
      "stateMutability": "view",
      "type": "function"
    },
    {
      "inputs": [
        {
          "internalType": "uint256",
          "name": "tokenId",
          "type": "uint256"
        }
      ],
      "name": "tokenURI",
      "outputs": [
        {
          "internalType": "string",
          "name": "",
          "type": "string"
        }
      ],
      "stateMutability": "view",
      "type": "function"
    },
    {
      "inputs": [],
      "name": "totalSupply",
      "outputs": [
        {
          "internalType": "uint256",
          "name": "",
          "type": "uint256"
        }
      ],
      "stateMutability": "view",
      "type": "function"
    },
    {
      "inputs": [
        {
          "internalType": "address",
          "name": "from",
          "type": "address"
        },
        {
          "internalType": "address",
          "name": "to",
          "type": "address"
        },
        {
          "internalType": "uint256",
          "name": "tokenId",
          "type": "uint256"
        }
      ],
      "name": "transferFrom",
      "outputs": [],
      "stateMutability": "nonpayable",
      "type": "function"
    }
  ],
  "bytecode": {
    "object": "0x60806040523480156200001157600080fd5b5060405162002459380380620024598339810160408190526200003491620001e7565b8151829082906200004d90600290602085019062000074565b5080516200006390600390602084019062000074565b506001600055506200028d92505050565b828054620000829062000251565b90600052602060002090601f016020900481019282620000a65760008555620000f1565b82601f10620000c157805160ff1916838001178555620000f1565b82800160010185558215620000f1579182015b82811115620000f1578251825591602001919060010190620000d4565b50620000ff92915062000103565b5090565b5b80821115620000ff576000815560010162000104565b634e487b7160e01b600052604160045260246000fd5b600082601f8301126200014257600080fd5b81516001600160401b03808211156200015f576200015f6200011a565b604051601f8301601f19908116603f011681019082821181831017156200018a576200018a6200011a565b81604052838152602092508683858801011115620001a757600080fd5b600091505b83821015620001cb5785820183015181830184015290820190620001ac565b83821115620001dd5760008385830101525b9695505050505050565b60008060408385031215620001fb57600080fd5b82516001600160401b03808211156200021357600080fd5b620002218683870162000130565b935060208501519150808211156200023857600080fd5b50620002478582860162000130565b9150509250929050565b600181811c908216806200026657607f821691505b6020821081036200028757634e487b7160e01b600052602260045260246000fd5b50919050565b6121bc806200029d6000396000f3fe6080604052600436106101405760003560e01c80634f558e79116100b6578063b44963371161006f578063b4496337146103cf578063b88d4fde146103fc578063c6c3bbe61461041c578063c87b56dd1461042f578063db4892e31461044f578063e985e9c51461048557600080fd5b80634f558e79146103255780636352211e1461034557806370a082311461036557806380f7b38b1461038557806395d89b411461039a578063a22cb465146103af57600080fd5b80631ab32005116101085780631ab320051461021d57806323b872dd14610255578063278ecde11461027557806329f99b9f14610295578063388ba90a146102d857806342842e0e1461030557600080fd5b806301ffc9a71461014557806306fdde031461017a578063081812fc1461019c578063095ea7b3146101d457806318160ddd146101f6575b600080fd5b34801561015157600080fd5b50610165610160366004611cb3565b6104ce565b60405190151581526020015b60405180910390f35b34801561018657600080fd5b5061018f610520565b6040516101719190611d28565b3480156101a857600080fd5b506101bc6101b7366004611d3b565b6105b2565b6040516001600160a01b039091168152602001610171565b3480156101e057600080fd5b506101f46101ef366004611d70565b6105f6565b005b34801561020257600080fd5b5060015460005403600019015b604051908152602001610171565b34801561022957600080fd5b5061020f610238366004611d70565b600a60209081526000928352604080842090915290825290205481565b34801561026157600080fd5b506101f4610270366004611d9a565b610683565b34801561028157600080fd5b506101f4610290366004611d3b565b61068e565b3480156102a157600080fd5b5061020f6102b0366004611d70565b6001600160a01b03919091166000908152600a60209081526040808320938352929052205490565b3480156102e457600080fd5b5061020f6102f3366004611d3b565b60096020526000908152604090205481565b34801561031157600080fd5b506101f4610320366004611d9a565b610819565b34801561033157600080fd5b50610165610340366004611d3b565b610834565b34801561035157600080fd5b506101bc610360366004611d3b565b61083f565b34801561037157600080fd5b5061020f610380366004611dd6565b610851565b34801561039157600080fd5b5061020f61089f565b3480156103a657600080fd5b5061018f6108e7565b3480156103bb57600080fd5b506101f46103ca366004611dff565b6108f6565b3480156103db57600080fd5b5061020f6103ea366004611d3b565b600b6020526000908152604090205481565b34801561040857600080fd5b506101f4610417366004611ea3565b61098b565b61020f61042a366004611d9a565b6109dc565b34801561043b57600080fd5b5061018f61044a366004611d3b565b610b8f565b34801561045b57600080fd5b506101bc61046a366004611d3b565b6008602052600090815260409020546001600160a01b031681565b34801561049157600080fd5b506101656104a0366004611f4d565b6001600160a01b03918216600090815260076020908152604080832093909416825291909152205460ff1690565b60006001600160e01b031982166380ac58cd60e01b14806104ff57506001600160e01b03198216635b5e139f60e01b145b8061051a57506301ffc9a760e01b6001600160e01b03198316145b92915050565b60606002805461052f90611f80565b80601f016020809104026020016040519081016040528092919081815260200182805461055b90611f80565b80156105a85780601f1061057d576101008083540402835291602001916105a8565b820191906000526020600020905b81548152906001019060200180831161058b57829003601f168201915b5050505050905090565b60006105bd82610e78565b6105da576040516333d1c03960e21b815260040160405180910390fd5b506000908152600660205260409020546001600160a01b031690565b60006106018261083f565b9050806001600160a01b0316836001600160a01b0316036106355760405163250fdee360e21b815260040160405180910390fd5b336001600160a01b03821614801590610655575061065381336104a0565b155b15610673576040516367d9dca160e11b815260040160405180910390fd5b61067e838383610eb1565b505050565b61067e838383610f0d565b61069781610e78565b6106fb5760405162461bcd60e51b815260206004820152602a60248201527f53796e7468657469634e46543a20726566756e6420666f72206e6f6e657869736044820152693a32b73a103a37b5b2b760b11b60648201526084015b60405180910390fd5b336107058261083f565b6001600160a01b03161461075b5760405162461bcd60e51b815260206004820152601c60248201527f53796e7468657469634e46543a206d757374206f776e20746f6b656e0000000060448201526064016106f2565b610764816110fa565b6000818152600b6020818152604080842080546008845282862080546009865284882080546001600160a01b03909216808a52600a8852868a20838b52885295892089905589895282546001600160a01b031916909255908790559490935293909355919082156107d9576107d93384611108565b837f5eee8032448a7f1556f67b8a76a4dcfd75ff98c05198df9f420467d0a1234e388460405161080b91815260200190565b60405180910390a250505050565b61067e8383836040518060200160405280600081525061098b565b600061051a82610e78565b600061084a82611221565b5192915050565b60006001600160a01b03821661087a576040516323d3ad8160e21b815260040160405180910390fd5b506001600160a01b03166000908152600560205260409020546001600160401b031690565b6000806108b56001546000546000199190030190565b9050806108c6816305f5e100611fd0565b6108d09190611fd0565b6108e1906601c6bf52634000611fef565b91505090565b60606003805461052f90611f80565b336001600160a01b0383160361091f5760405163b06307db60e01b815260040160405180910390fd5b3360008181526007602090815260408083206001600160a01b03871680855290835292819020805460ff191686151590811790915590519081529192917f17307eab39ab6107e8899845ad3d59bd9653f200f220920489ca2b5937696c31910160405180910390a35050565b610996848484610f0d565b6001600160a01b0383163b151580156109b857506109b684848484611348565b155b156109d6576040516368d2bf6b60e11b815260040160405180910390fd5b50505050565b6000806109e761089f565b905080341015610a395760405162461bcd60e51b815260206004820181905260248201527f53796e7468657469634e46543a20696e73756666696369656e7420657468657260448201526064016106f2565b6001600160a01b0384166000908152600a6020908152604080832086845290915290205415610aaa5760405162461bcd60e51b815260206004820152601c60248201527f53796e7468657469634e46543a20616c7265616479206d696e7465640000000060448201526064016106f2565b600080546001600160a01b038616808352600a6020908152604080852088865282528085208490558385526008825280852080546001600160a01b031916909317909255600990529091208490553415610b22576000818152600b602052604081208054349290610b1c908490611fef565b90915550505b610b2d866001611434565b83856001600160a01b0316876001600160a01b03167f458f5fa412d0f69b08dd84872b0215675cc67bc1d5b6fd93300a1c3878b861968434604051610b7c929190918252602082015260400190565b60405180910390a49150505b9392505050565b6060610b9a82610e78565b610bfc5760405162461bcd60e51b815260206004820152602d60248201527f53796e7468657469634e46543a2055524920717565727920666f72206e6f6e6560448201526c3c34b9ba32b73a103a37b5b2b760991b60648201526084016106f2565b6000828152600860209081526040808320546009909252918290205491516301ffc9a760e01b8152636cdb3d1360e11b60048201526001600160a01b03909116919060609083906301ffc9a790602401602060405180830381865afa158015610c69573d6000803e3d6000fd5b505050506040513d601f19601f82011682018060405250810190610c8d9190612007565b15610d1857600085815260086020526040908190205490516303a24d0760e21b8152600481018490526001600160a01b0390911690630e89341c906024015b600060405180830381865afa158015610ce9573d6000803e3d6000fd5b505050506040513d6000823e601f3d908101601f19168201604052610d119190810190612024565b9050610e12565b6040516301ffc9a760e01b81526380ac58cd60e01b60048201526001600160a01b038416906301ffc9a790602401602060405180830381865afa158015610d63573d6000803e3d6000fd5b505050506040513d601f19601f82011682018060405250810190610d879190612007565b15610dca576000858152600860205260409081902054905163c87b56dd60e01b8152600481018490526001600160a01b039091169063c87b56dd90602401610ccc565b60405162461bcd60e51b815260206004820152601e60248201527f6f6e6c7920737570706f727420373231206f72203131353520746f6b656e000060448201526064016106f2565b610e43816040518060400160405280600681526020016530787b69647d60d01b815250610e3e85611566565b6115bd565b9050610e6f81604051806040016040528060048152602001637b69647d60e01b815250610e3e8561179b565b95945050505050565b600081600111158015610e8c575060005482105b801561051a575050600090815260046020526040902054600160e01b900460ff161590565b60008281526006602052604080822080546001600160a01b0319166001600160a01b0387811691821790925591518593918516917f8c5be1e5ebec7d5bd14f71427d1e84f3dd0314c0f7b2291e5b200ac8c7c3b92591a4505050565b6000610f1882611221565b9050836001600160a01b031681600001516001600160a01b031614610f4f5760405162a1148160e81b815260040160405180910390fd5b6000336001600160a01b0386161480610f6d5750610f6d85336104a0565b80610f88575033610f7d846105b2565b6001600160a01b0316145b905080610fa857604051632ce44b5f60e11b815260040160405180910390fd5b6001600160a01b038416610fcf57604051633a954ecd60e21b815260040160405180910390fd5b610fdb60008487610eb1565b6001600160a01b038581166000908152600560209081526040808320805467ffffffffffffffff198082166001600160401b0392831660001901831617909255898616808652838620805493841693831660019081018416949094179055898652600490945282852080546001600160e01b031916909417600160a01b429092169190910217835587018084529220805491939091166110af5760005482146110af57805460208601516001600160401b0316600160a01b026001600160e01b03199091166001600160a01b038a16171781555b50505082846001600160a01b0316866001600160a01b03167fddf252ad1be2c89b69c2b068fc378daa952ba7f163c4a11628f55a4df523b3ef60405160405180910390a45050505050565b61110581600061189b565b50565b804710156111585760405162461bcd60e51b815260206004820152601d60248201527f416464726573733a20696e73756666696369656e742062616c616e636500000060448201526064016106f2565b6000826001600160a01b03168260405160006040518083038185875af1925050503d80600081146111a5576040519150601f19603f3d011682016040523d82523d6000602084013e6111aa565b606091505b505090508061067e5760405162461bcd60e51b815260206004820152603a60248201527f416464726573733a20756e61626c6520746f2073656e642076616c75652c207260448201527f6563697069656e74206d6179206861766520726576657274656400000000000060648201526084016106f2565b60408051606081018252600080825260208201819052918101919091528180600111158015611251575060005481105b1561132f57600081815260046020908152604091829020825160608101845290546001600160a01b0381168252600160a01b81046001600160401b031692820192909252600160e01b90910460ff1615159181018290529061132d5780516001600160a01b0316156112c4579392505050565b5060001901600081815260046020908152604091829020825160608101845290546001600160a01b038116808352600160a01b82046001600160401b031693830193909352600160e01b900460ff1615159281019290925215611328579392505050565b6112c4565b505b604051636f96cda160e11b815260040160405180910390fd5b604051630a85bd0160e11b81526000906001600160a01b0385169063150b7a029061137d903390899088908890600401612091565b6020604051808303816000875af19250505080156113b8575060408051601f3d908101601f191682019092526113b5918101906120ce565b60015b611416573d8080156113e6576040519150601f19603f3d011682016040523d82523d6000602084013e6113eb565b606091505b50805160000361140e576040516368d2bf6b60e11b815260040160405180910390fd5b805181602001fd5b6001600160e01b031916630a85bd0160e11b1490505b949350505050565b6000546001600160a01b03831661145d57604051622e076360e81b815260040160405180910390fd5b8160000361147e5760405163b562e8dd60e01b815260040160405180910390fd5b6001600160a01b038316600081815260056020908152604080832080546fffffffffffffffffffffffffffffffff1981166001600160401b038083168a0181169182176801000000000000000067ffffffffffffffff1990941690921783900481168a01811690920217909155858452600490925290912080546001600160e01b031916909217600160a01b4290921691909102179055808083015b6040516001830192906001600160a01b038716906000907fddf252ad1be2c89b69c2b068fc378daa952ba7f163c4a11628f55a4df523b3ef908290a480820361151a5750600055505050565b6060816000036115905750506040805180820190915260048152630307830360e41b602082015290565b8160005b81156115b357806115a4816120eb565b915050600882901c9150611594565b61142c8482611a60565b60608383836000805b845181101561162c576115da858286611bfb565b1561160c5782516115eb9083611fef565b9150600184516115fb9190612104565b6116059082611fef565b905061161a565b81611616816120eb565b9250505b80611624816120eb565b9150506115c6565b506000816001600160401b0381111561164757611647611e36565b6040519080825280601f01601f191660200182016040528015611671576020820181803683370190505b5090506000805b865181101561178c5761168c878288611bfb565b156117245760005b8551811015611704578581815181106116af576116af61211b565b01602001516001600160f81b03191684846116c9816120eb565b9550815181106116db576116db61211b565b60200101906001600160f81b031916908160001a905350806116fc816120eb565b915050611694565b50600186516117139190612104565b61171d9082611fef565b905061177a565b8681815181106117365761173661211b565b01602001516001600160f81b0319168383611750816120eb565b9450815181106117625761176261211b565b60200101906001600160f81b031916908160001a9053505b80611784816120eb565b915050611678565b50909998505050505050505050565b6060816000036117c25750506040805180820190915260018152600360fc1b602082015290565b8160005b81156117ec57806117d6816120eb565b91506117e59050600a83612147565b91506117c6565b6000816001600160401b0381111561180657611806611e36565b6040519080825280601f01601f191660200182016040528015611830576020820181803683370190505b5090505b841561142c57611845600183612104565b9150611852600a8661215b565b61185d906030611fef565b60f81b8183815181106118725761187261211b565b60200101906001600160f81b031916908160001a905350611894600a86612147565b9450611834565b60006118a683611221565b8051909150821561190c576000336001600160a01b03831614806118cf57506118cf82336104a0565b806118ea5750336118df866105b2565b6001600160a01b0316145b90508061190a57604051632ce44b5f60e11b815260040160405180910390fd5b505b61191860008583610eb1565b6001600160a01b0380821660008181526005602090815260408083208054600160801b6000196001600160401b0380841691909101811667ffffffffffffffff198416811783900482166001908101831690930277ffffffffffffffff0000000000000000ffffffffffffffff19909416179290921783558b86526004909452828520805460ff60e01b1942909316600160a01b026001600160e01b03199091169097179690961716600160e01b178555918901808452922080549194909116611a16576000548214611a1657805460208701516001600160401b0316600160a01b026001600160e01b03199091166001600160a01b038716171781555b5050604051869250600091506001600160a01b038416907fddf252ad1be2c89b69c2b068fc378daa952ba7f163c4a11628f55a4df523b3ef908390a4505060018054810190555050565b60606000611a6f836002611fd0565b611a7a906002611fef565b6001600160401b03811115611a9157611a91611e36565b6040519080825280601f01601f191660200182016040528015611abb576020820181803683370190505b509050600360fc1b81600081518110611ad657611ad661211b565b60200101906001600160f81b031916908160001a905350600f60fb1b81600181518110611b0557611b0561211b565b60200101906001600160f81b031916908160001a9053506000611b29846002611fd0565b611b34906001611fef565b90505b6001811115611bac576f181899199a1a9b1b9c1cb0b131b232b360811b85600f1660108110611b6857611b6861211b565b1a60f81b828281518110611b7e57611b7e61211b565b60200101906001600160f81b031916908160001a90535060049490941c93611ba58161216f565b9050611b37565b508315610b885760405162461bcd60e51b815260206004820181905260248201527f537472696e67733a20686578206c656e67746820696e73756666696369656e7460448201526064016106f2565b60008151838551611c0c9190612104565b1015611c1a57506000610b88565b60005b8251811015611c9257828181518110611c3857611c3861211b565b01602001516001600160f81b03191685611c528684611fef565b81518110611c6257611c6261211b565b01602001516001600160f81b03191614611c80576000915050610b88565b80611c8a816120eb565b915050611c1d565b506001949350505050565b6001600160e01b03198116811461110557600080fd5b600060208284031215611cc557600080fd5b8135610b8881611c9d565b60005b83811015611ceb578181015183820152602001611cd3565b838111156109d65750506000910152565b60008151808452611d14816020860160208601611cd0565b601f01601f19169290920160200192915050565b602081526000610b886020830184611cfc565b600060208284031215611d4d57600080fd5b5035919050565b80356001600160a01b0381168114611d6b57600080fd5b919050565b60008060408385031215611d8357600080fd5b611d8c83611d54565b946020939093013593505050565b600080600060608486031215611daf57600080fd5b611db884611d54565b9250611dc660208501611d54565b9150604084013590509250925092565b600060208284031215611de857600080fd5b610b8882611d54565b801515811461110557600080fd5b60008060408385031215611e1257600080fd5b611e1b83611d54565b91506020830135611e2b81611df1565b809150509250929050565b634e487b7160e01b600052604160045260246000fd5b604051601f8201601f191681016001600160401b0381118282101715611e7457611e74611e36565b604052919050565b60006001600160401b03821115611e9557611e95611e36565b50601f01601f191660200190565b60008060008060808587031215611eb957600080fd5b611ec285611d54565b9350611ed060208601611d54565b92506040850135915060608501356001600160401b03811115611ef257600080fd5b8501601f81018713611f0357600080fd5b8035611f16611f1182611e7c565b611e4c565b818152886020838501011115611f2b57600080fd5b8160208401602083013760006020838301015280935050505092959194509250565b60008060408385031215611f6057600080fd5b611f6983611d54565b9150611f7760208401611d54565b90509250929050565b600181811c90821680611f9457607f821691505b602082108103611fb457634e487b7160e01b600052602260045260246000fd5b50919050565b634e487b7160e01b600052601160045260246000fd5b6000816000190483118215151615611fea57611fea611fba565b500290565b6000821982111561200257612002611fba565b500190565b60006020828403121561201957600080fd5b8151610b8881611df1565b60006020828403121561203657600080fd5b81516001600160401b0381111561204c57600080fd5b8201601f8101841361205d57600080fd5b805161206b611f1182611e7c565b81815285602083850101111561208057600080fd5b610e6f826020830160208601611cd0565b6001600160a01b03858116825284166020820152604081018390526080606082018190526000906120c490830184611cfc565b9695505050505050565b6000602082840312156120e057600080fd5b8151610b8881611c9d565b6000600182016120fd576120fd611fba565b5060010190565b60008282101561211657612116611fba565b500390565b634e487b7160e01b600052603260045260246000fd5b634e487b7160e01b600052601260045260246000fd5b60008261215657612156612131565b500490565b60008261216a5761216a612131565b500690565b60008161217e5761217e611fba565b50600019019056fea2646970667358221220c5e197806efc823339b179a284d1ceb0d9de5a3984c791b49f6989b6694d66ef64736f6c634300080d0033",
    "linkReferences": {}
  }
}