{
  "abi": [
    {
      "inputs": [
        {
          "internalType": "string",
          "name": "name",
          "type": "string"
        },
        {
          "internalType": "string",
          "name": "symbol",
          "type": "string"
        }
      ],
      "stateMutability": "nonpayable",
      "type": "constructor"
    },
    {
      "inputs": [],
      "name": "ApprovalCallerNotOwnerNorApproved",
      "type": "error"
    },
    {
      "inputs": [],
      "name": "ApprovalQueryForNonexistentToken",
      "type": "error"
    },
    {
      "inputs": [],
      "name": "ApprovalToCurrentOwner",
      "type": "error"
    },
    {
      "inputs": [],
      "name": "ApproveToCaller",
      "type": "error"
    },
    {
      "inputs": [],
      "name": "BalanceQueryForZeroAddress",
      "type": "error"
    },
    {
      "inputs": [],
      "name": "MintToZeroAddress",
      "type": "error"
    },
    {
      "inputs": [],
      "name": "MintZeroQuantity",
      "type": "error"
    },
    {
      "inputs": [],
      "name": "OwnerQueryForNonexistentToken",
      "type": "error"
    },
    {
      "inputs": [],
      "name": "TransferCallerNotOwnerNorApproved",
      "type": "error"
    },
    {
      "inputs": [],
      "name": "TransferFromIncorrectOwner",
      "type": "error"
    },
    {
      "inputs": [],
      "name": "TransferToNonERC721ReceiverImplementer",
      "type": "error"
    },
    {
      "inputs": [],
      "name": "TransferToZeroAddress",
      "type": "error"
    },
    {
      "anonymous": false,
      "inputs": [
        {
          "indexed": true,
          "internalType": "address",
          "name": "owner",
          "type": "address"
        },
        {
          "indexed": true,
          "internalType": "address",
          "name": "approved",
          "type": "address"
        },
        {
          "indexed": true,
          "internalType": "uint256",
          "name": "tokenId",
          "type": "uint256"
        }
      ],
      "name": "Approval",
      "type": "event"
    },
    {
      "anonymous": false,
      "inputs": [
        {
          "indexed": true,
          "internalType": "address",
          "name": "owner",
          "type": "address"
        },
        {
          "indexed": true,
          "internalType": "address",
          "name": "operator",
          "type": "address"
        },
        {
          "indexed": false,
          "internalType": "bool",
          "name": "approved",
          "type": "bool"
        }
      ],
      "name": "ApprovalForAll",
      "type": "event"
    },
    {
      "anonymous": false,
      "inputs": [
        {
          "indexed": true,
          "internalType": "address",
          "name": "to",
          "type": "address"
        },
        {
          "indexed": true,
          "internalType": "address",
          "name": "contractAdddr",
          "type": "address"
        },
        {
          "indexed": true,
          "internalType": "uint256",
          "name": "tokenId",
          "type": "uint256"
        },
        {
          "indexed": false,
          "internalType": "uint256",
          "name": "newTokenId",
          "type": "uint256"
        },
        {
          "indexed": false,
          "internalType": "uint256",
          "name": "amount",
          "type": "uint256"
        }
      ],
      "name": "Mint",
      "type": "event"
    },
    {
      "anonymous": false,
      "inputs": [
        {
          "indexed": true,
          "internalType": "uint256",
          "name": "tokenId",
          "type": "uint256"
        },
        {
          "indexed": false,
          "internalType": "uint256",
          "name": "amount",
          "type": "uint256"
        }
      ],
      "name": "Refund",
      "type": "event"
    },
    {
      "anonymous": false,
      "inputs": [
        {
          "indexed": true,
          "internalType": "address",
          "name": "from",
          "type": "address"
        },
        {
          "indexed": true,
          "internalType": "address",
          "name": "to",
          "type": "address"
        },
        {
          "indexed": true,
          "internalType": "uint256",
          "name": "tokenId",
          "type": "uint256"
        }
      ],
      "name": "Transfer",
      "type": "event"
    },
    {
      "inputs": [
        {
          "internalType": "address",
          "name": "to",
          "type": "address"
        },
        {
          "internalType": "uint256",
          "name": "tokenId",
          "type": "uint256"
        }
      ],
      "name": "approve",
      "outputs": [],
      "stateMutability": "nonpayable",
      "type": "function"
    },
    {
      "inputs": [
        {
          "internalType": "address",
          "name": "owner",
          "type": "address"
        }
      ],
      "name": "balanceOf",
      "outputs": [
        {
          "internalType": "uint256",
          "name": "",
          "type": "uint256"
        }
      ],
      "stateMutability": "view",
      "type": "function"
    },
    {
      "inputs": [],
      "name": "calcMintPrice",
      "outputs": [
        {
          "internalType": "uint256",
          "name": "",
          "type": "uint256"
        }
      ],
      "stateMutability": "view",
      "type": "function"
    },
    {
      "inputs": [
        {
          "internalType": "uint256",
          "name": "",
          "type": "uint256"
        }
      ],
      "name": "etherBalances",
      "outputs": [
        {
          "internalType": "uint256",
          "name": "",
          "type": "uint256"
        }
      ],
      "stateMutability": "view",
      "type": "function"
    },
    {
      "inputs": [
        {
          "internalType": "uint256",
          "name": "tokenId",
          "type": "uint256"
        }
      ],
      "name": "exists",
      "outputs": [
        {
          "internalType": "bool",
          "name": "",
          "type": "bool"
        }
      ],
      "stateMutability": "view",
      "type": "function"
    },
    {
      "inputs": [
        {
          "internalType": "uint256",
          "name": "tokenId",
          "type": "uint256"
        }
      ],
      "name": "getApproved",
      "outputs": [
        {
          "internalType": "address",
          "name": "",
          "type": "address"
        }
      ],
      "stateMutability": "view",
      "type": "function"
    },
    {
      "inputs": [
        {
          "internalType": "address",
          "name": "owner",
          "type": "address"
        },
        {
          "internalType": "address",
          "name": "operator",
          "type": "address"
        }
      ],
      "name": "isApprovedForAll",
      "outputs": [
        {
          "internalType": "bool",
          "name": "",
          "type": "bool"
        }
      ],
      "stateMutability": "view",
      "type": "function"
    },
    {
      "inputs": [
        {
          "internalType": "address",
          "name": "to",
          "type": "address"
        },
        {
          "internalType": "address",
          "name": "contractAddr",
          "type": "address"
        },
        {
          "internalType": "uint256",
          "name": "tokenId",
          "type": "uint256"
        }
      ],
      "name": "mint",
      "outputs": [
        {
          "internalType": "uint256",
          "name": "",
          "type": "uint256"
        }
      ],
      "stateMutability": "payable",
      "type": "function"
    },
    {
      "inputs": [],
      "name": "name",
      "outputs": [
        {
          "internalType": "string",
          "name": "",
          "type": "string"
        }
      ],
      "stateMutability": "view",
      "type": "function"
    },
    {
      "inputs": [
        {
          "internalType": "uint256",
          "name": "tokenId",
          "type": "uint256"
        }
      ],
      "name": "ownerOf",
      "outputs": [
        {
          "internalType": "address",
          "name": "",
          "type": "address"
        }
      ],
      "stateMutability": "view",
      "type": "function"
    },
    {
      "inputs": [
        {
          "internalType": "uint256",
          "name": "tokenId",
          "type": "uint256"
        }
      ],
      "name": "refund",
      "outputs": [],
      "stateMutability": "nonpayable",
      "type": "function"
    },
    {
      "inputs": [
        {
          "internalType": "address",
          "name": "from",
          "type": "address"
        },
        {
          "internalType": "address",
          "name": "to",
          "type": "address"
        },
        {
          "internalType": "uint256",
          "name": "tokenId",
          "type": "uint256"
        }
      ],
      "name": "safeTransferFrom",
      "outputs": [],
      "stateMutability": "nonpayable",
      "type": "function"
    },
    {
      "inputs": [
        {
          "internalType": "address",
          "name": "from",
          "type": "address"
        },
        {
          "internalType": "address",
          "name": "to",
          "type": "address"
        },
        {
          "internalType": "uint256",
          "name": "tokenId",
          "type": "uint256"
        },
        {
          "internalType": "bytes",
          "name": "_data",
          "type": "bytes"
        }
      ],
      "name": "safeTransferFrom",
      "outputs": [],
      "stateMutability": "nonpayable",
      "type": "function"
    },
    {
      "inputs": [
        {
          "internalType": "address",
          "name": "operator",
          "type": "address"
        },
        {
          "internalType": "bool",
          "name": "approved",
          "type": "bool"
        }
      ],
      "name": "setApprovalForAll",
      "outputs": [],
      "stateMutability": "nonpayable",
      "type": "function"
    },
    {
      "inputs": [
        {
          "internalType": "bytes4",
          "name": "interfaceId",
          "type": "bytes4"
        }
      ],
      "name": "supportsInterface",
      "outputs": [
        {
          "internalType": "bool",
          "name": "",
          "type": "bool"
        }
      ],
      "stateMutability": "view",
      "type": "function"
    },
    {
      "inputs": [],
      "name": "symbol",
      "outputs": [
        {
          "internalType": "string",
          "name": "",
          "type": "string"
        }
      ],
      "stateMutability": "view",
      "type": "function"
    },
    {
      "inputs": [
        {
          "internalType": "uint256",
          "name": "",
          "type": "uint256"
        }
      ],
      "name": "tokenIdToContract",
      "outputs": [
        {
          "internalType": "address",
          "name": "",
          "type": "address"
        }
      ],
      "stateMutability": "view",
      "type": "function"
    },
    {
      "inputs": [
        {
          "internalType": "uint256",
          "name": "",
          "type": "uint256"
        }
      ],
      "name": "tokenIdToOriTokenId",
      "outputs": [
        {
          "internalType": "uint256",
          "name": "",
          "type": "uint256"
        }
      ],
      "stateMutability": "view",
      "type": "function"
    },
    {
      "inputs": [
        {
          "internalType": "uint256",
          "name": "tokenId",
          "type": "uint256"
        }
      ],
      "name": "tokenURI",
      "outputs": [
        {
          "internalType": "string",
          "name": "",
          "type": "string"
        }
      ],
      "stateMutability": "view",
      "type": "function"
    },
    {
      "inputs": [],
      "name": "totalSupply",
      "outputs": [
        {
          "internalType": "uint256",
          "name": "",
          "type": "uint256"
        }
      ],
      "stateMutability": "view",
      "type": "function"
    },
    {
      "inputs": [
        {
          "internalType": "address",
          "name": "from",
          "type": "address"
        },
        {
          "internalType": "address",
          "name": "to",
          "type": "address"
        },
        {
          "internalType": "uint256",
          "name": "tokenId",
          "type": "uint256"
        }
      ],
      "name": "transferFrom",
      "outputs": [],
      "stateMutability": "nonpayable",
      "type": "function"
    },
    {
      "inputs": [
        {
          "internalType": "address",
          "name": "",
          "type": "address"
        },
        {
          "internalType": "uint256",
          "name": "",
          "type": "uint256"
        }
      ],
      "name": "uniques",
      "outputs": [
        {
          "internalType": "uint256",
          "name": "",
          "type": "uint256"
        }
      ],
      "stateMutability": "view",
      "type": "function"
    }
  ],
  "bytecode": {
    "object": "0x60806040523480156200001157600080fd5b50604051620023ee380380620023ee8339810160408190526200003491620001e7565b8151829082906200004d90600290602085019062000074565b5080516200006390600390602084019062000074565b506001600055506200028d92505050565b828054620000829062000251565b90600052602060002090601f016020900481019282620000a65760008555620000f1565b82601f10620000c157805160ff1916838001178555620000f1565b82800160010185558215620000f1579182015b82811115620000f1578251825591602001919060010190620000d4565b50620000ff92915062000103565b5090565b5b80821115620000ff576000815560010162000104565b634e487b7160e01b600052604160045260246000fd5b600082601f8301126200014257600080fd5b81516001600160401b03808211156200015f576200015f6200011a565b604051601f8301601f19908116603f011681019082821181831017156200018a576200018a6200011a565b81604052838152602092508683858801011115620001a757600080fd5b600091505b83821015620001cb5785820183015181830184015290820190620001ac565b83821115620001dd5760008385830101525b9695505050505050565b60008060408385031215620001fb57600080fd5b82516001600160401b03808211156200021357600080fd5b620002218683870162000130565b935060208501519150808211156200023857600080fd5b50620002478582860162000130565b9150509250929050565b600181811c908216806200026657607f821691505b6020821081036200028757634e487b7160e01b600052602260045260246000fd5b50919050565b612151806200029d6000396000f3fe6080604052600436106101355760003560e01c80634f558e79116100ab5780639edfe1c91161006f5780639edfe1c91461039b578063a22cb465146103c8578063b88d4fde146103e8578063c6c3bbe614610408578063c87b56dd1461041b578063e985e9c51461043b57600080fd5b80634f558e79146103115780636352211e1461033157806370a082311461035157806380f7b38b1461037157806395d89b411461038657600080fd5b8063108a6727116100fd578063108a67271461023157806313ef64871461025e57806318160ddd1461029457806323b872dd146102b1578063278ecde1146102d157806342842e0e146102f157600080fd5b806301ffc9a71461013a5780630277c85c1461016f57806306fdde03146101b5578063081812fc146101d7578063095ea7b31461020f575b600080fd5b34801561014657600080fd5b5061015a610155366004611c49565b610484565b60405190151581526020015b60405180910390f35b34801561017b57600080fd5b506101a761018a366004611c82565b600a60209081526000928352604080842090915290825290205481565b604051908152602001610166565b3480156101c157600080fd5b506101ca6104d6565b6040516101669190611d04565b3480156101e357600080fd5b506101f76101f2366004611d17565b610568565b6040516001600160a01b039091168152602001610166565b34801561021b57600080fd5b5061022f61022a366004611c82565b6105ac565b005b34801561023d57600080fd5b506101a761024c366004611d17565b60096020526000908152604090205481565b34801561026a57600080fd5b506101f7610279366004611d17565b6008602052600090815260409020546001600160a01b031681565b3480156102a057600080fd5b5060015460005403600019016101a7565b3480156102bd57600080fd5b5061022f6102cc366004611d30565b610639565b3480156102dd57600080fd5b5061022f6102ec366004611d17565b610644565b3480156102fd57600080fd5b5061022f61030c366004611d30565b6107cf565b34801561031d57600080fd5b5061015a61032c366004611d17565b6107ea565b34801561033d57600080fd5b506101f761034c366004611d17565b6107f5565b34801561035d57600080fd5b506101a761036c366004611d6c565b610807565b34801561037d57600080fd5b506101a7610855565b34801561039257600080fd5b506101ca61089d565b3480156103a757600080fd5b506101a76103b6366004611d17565b600b6020526000908152604090205481565b3480156103d457600080fd5b5061022f6103e3366004611d95565b6108ac565b3480156103f457600080fd5b5061022f610403366004611e39565b610941565b6101a7610416366004611d30565b610992565b34801561042757600080fd5b506101ca610436366004611d17565b610b45565b34801561044757600080fd5b5061015a610456366004611ee3565b6001600160a01b03918216600090815260076020908152604080832093909416825291909152205460ff1690565b60006001600160e01b031982166380ac58cd60e01b14806104b557506001600160e01b03198216635b5e139f60e01b145b806104d057506301ffc9a760e01b6001600160e01b03198316145b92915050565b6060600280546104e590611f16565b80601f016020809104026020016040519081016040528092919081815260200182805461051190611f16565b801561055e5780601f106105335761010080835404028352916020019161055e565b820191906000526020600020905b81548152906001019060200180831161054157829003601f168201915b5050505050905090565b600061057382610e0e565b610590576040516333d1c03960e21b815260040160405180910390fd5b506000908152600660205260409020546001600160a01b031690565b60006105b7826107f5565b9050806001600160a01b0316836001600160a01b0316036105eb5760405163250fdee360e21b815260040160405180910390fd5b336001600160a01b0382161480159061060b57506106098133610456565b155b15610629576040516367d9dca160e11b815260040160405180910390fd5b610634838383610e47565b505050565b610634838383610ea3565b61064d81610e0e565b6106b15760405162461bcd60e51b815260206004820152602a60248201527f53796e7468657469634e46543a20726566756e6420666f72206e6f6e657869736044820152693a32b73a103a37b5b2b760b11b60648201526084015b60405180910390fd5b336106bb826107f5565b6001600160a01b0316146107115760405162461bcd60e51b815260206004820152601c60248201527f53796e7468657469634e46543a206d757374206f776e20746f6b656e0000000060448201526064016106a8565b61071a81611090565b6000818152600b6020818152604080842080546008845282862080546009865284882080546001600160a01b03909216808a52600a8852868a20838b52885295892089905589895282546001600160a01b0319169092559087905594909352939093559190821561078f5761078f338461109e565b837f5eee8032448a7f1556f67b8a76a4dcfd75ff98c05198df9f420467d0a1234e38846040516107c191815260200190565b60405180910390a250505050565b61063483838360405180602001604052806000815250610941565b60006104d082610e0e565b6000610800826111b7565b5192915050565b60006001600160a01b038216610830576040516323d3ad8160e21b815260040160405180910390fd5b506001600160a01b03166000908152600560205260409020546001600160401b031690565b60008061086b6001546000546000199190030190565b90508061087c816305f5e100611f66565b6108869190611f66565b610897906601c6bf52634000611f85565b91505090565b6060600380546104e590611f16565b336001600160a01b038316036108d55760405163b06307db60e01b815260040160405180910390fd5b3360008181526007602090815260408083206001600160a01b03871680855290835292819020805460ff191686151590811790915590519081529192917f17307eab39ab6107e8899845ad3d59bd9653f200f220920489ca2b5937696c31910160405180910390a35050565b61094c848484610ea3565b6001600160a01b0383163b1515801561096e575061096c848484846112de565b155b1561098c576040516368d2bf6b60e11b815260040160405180910390fd5b50505050565b60008061099d610855565b9050803410156109ef5760405162461bcd60e51b815260206004820181905260248201527f53796e7468657469634e46543a20696e73756666696369656e7420657468657260448201526064016106a8565b6001600160a01b0384166000908152600a6020908152604080832086845290915290205415610a605760405162461bcd60e51b815260206004820152601c60248201527f53796e7468657469634e46543a20616c7265616479206d696e7465640000000060448201526064016106a8565b600080546001600160a01b038616808352600a6020908152604080852088865282528085208490558385526008825280852080546001600160a01b031916909317909255600990529091208490553415610ad8576000818152600b602052604081208054349290610ad2908490611f85565b90915550505b610ae38660016113ca565b83856001600160a01b0316876001600160a01b03167f458f5fa412d0f69b08dd84872b0215675cc67bc1d5b6fd93300a1c3878b861968434604051610b32929190918252602082015260400190565b60405180910390a49150505b9392505050565b6060610b5082610e0e565b610bb25760405162461bcd60e51b815260206004820152602d60248201527f53796e7468657469634e46543a2055524920717565727920666f72206e6f6e6560448201526c3c34b9ba32b73a103a37b5b2b760991b60648201526084016106a8565b6000828152600860209081526040808320546009909252918290205491516301ffc9a760e01b8152636cdb3d1360e11b60048201526001600160a01b0390911691829160609083906301ffc9a790602401602060405180830381865afa158015610c20573d6000803e3d6000fd5b505050506040513d601f19601f82011682018060405250810190610c449190611f9d565b15610cbe576040516303a24d0760e21b8152600481018390526001600160a01b03841690630e89341c906024015b600060405180830381865afa158015610c8f573d6000803e3d6000fd5b505050506040513d6000823e601f3d908101601f19168201604052610cb79190810190611fba565b9050610da7565b6040516301ffc9a760e01b81526380ac58cd60e01b60048201526001600160a01b038516906301ffc9a790602401602060405180830381865afa158015610d09573d6000803e3d6000fd5b505050506040513d601f19601f82011682018060405250810190610d2d9190611f9d565b15610d5f5760405163c87b56dd60e01b8152600481018390526001600160a01b0384169063c87b56dd90602401610c72565b60405162461bcd60e51b815260206004820152601e60248201527f6f6e6c7920737570706f727420373231206f72203131353520746f6b656e000060448201526064016106a8565b610dd8816040518060400160405280600681526020016530787b69647d60d01b815250610dd3856114fc565b611553565b9050610e0481604051806040016040528060048152602001637b69647d60e01b815250610dd385611731565b9695505050505050565b600081600111158015610e22575060005482105b80156104d0575050600090815260046020526040902054600160e01b900460ff161590565b60008281526006602052604080822080546001600160a01b0319166001600160a01b0387811691821790925591518593918516917f8c5be1e5ebec7d5bd14f71427d1e84f3dd0314c0f7b2291e5b200ac8c7c3b92591a4505050565b6000610eae826111b7565b9050836001600160a01b031681600001516001600160a01b031614610ee55760405162a1148160e81b815260040160405180910390fd5b6000336001600160a01b0386161480610f035750610f038533610456565b80610f1e575033610f1384610568565b6001600160a01b0316145b905080610f3e57604051632ce44b5f60e11b815260040160405180910390fd5b6001600160a01b038416610f6557604051633a954ecd60e21b815260040160405180910390fd5b610f7160008487610e47565b6001600160a01b038581166000908152600560209081526040808320805467ffffffffffffffff198082166001600160401b0392831660001901831617909255898616808652838620805493841693831660019081018416949094179055898652600490945282852080546001600160e01b031916909417600160a01b4290921691909102178355870180845292208054919390911661104557600054821461104557805460208601516001600160401b0316600160a01b026001600160e01b03199091166001600160a01b038a16171781555b50505082846001600160a01b0316866001600160a01b03167fddf252ad1be2c89b69c2b068fc378daa952ba7f163c4a11628f55a4df523b3ef60405160405180910390a45050505050565b61109b816000611831565b50565b804710156110ee5760405162461bcd60e51b815260206004820152601d60248201527f416464726573733a20696e73756666696369656e742062616c616e636500000060448201526064016106a8565b6000826001600160a01b03168260405160006040518083038185875af1925050503d806000811461113b576040519150601f19603f3d011682016040523d82523d6000602084013e611140565b606091505b50509050806106345760405162461bcd60e51b815260206004820152603a60248201527f416464726573733a20756e61626c6520746f2073656e642076616c75652c207260448201527f6563697069656e74206d6179206861766520726576657274656400000000000060648201526084016106a8565b604080516060810182526000808252602082018190529181019190915281806001111580156111e7575060005481105b156112c557600081815260046020908152604091829020825160608101845290546001600160a01b0381168252600160a01b81046001600160401b031692820192909252600160e01b90910460ff161515918101829052906112c35780516001600160a01b03161561125a579392505050565b5060001901600081815260046020908152604091829020825160608101845290546001600160a01b038116808352600160a01b82046001600160401b031693830193909352600160e01b900460ff16151592810192909252156112be579392505050565b61125a565b505b604051636f96cda160e11b815260040160405180910390fd5b604051630a85bd0160e11b81526000906001600160a01b0385169063150b7a0290611313903390899088908890600401612030565b6020604051808303816000875af192505050801561134e575060408051601f3d908101601f1916820190925261134b91810190612063565b60015b6113ac573d80801561137c576040519150601f19603f3d011682016040523d82523d6000602084013e611381565b606091505b5080516000036113a4576040516368d2bf6b60e11b815260040160405180910390fd5b805181602001fd5b6001600160e01b031916630a85bd0160e11b1490505b949350505050565b6000546001600160a01b0383166113f357604051622e076360e81b815260040160405180910390fd5b816000036114145760405163b562e8dd60e01b815260040160405180910390fd5b6001600160a01b038316600081815260056020908152604080832080546fffffffffffffffffffffffffffffffff1981166001600160401b038083168a0181169182176801000000000000000067ffffffffffffffff1990941690921783900481168a01811690920217909155858452600490925290912080546001600160e01b031916909217600160a01b4290921691909102179055808083015b6040516001830192906001600160a01b038716906000907fddf252ad1be2c89b69c2b068fc378daa952ba7f163c4a11628f55a4df523b3ef908290a48082036114b05750600055505050565b6060816000036115265750506040805180820190915260048152630307830360e41b602082015290565b8160005b8115611549578061153a81612080565b915050600882901c915061152a565b6113c284826119f6565b60608383836000805b84518110156115c257611570858286611b91565b156115a25782516115819083611f85565b9150600184516115919190612099565b61159b9082611f85565b90506115b0565b816115ac81612080565b9250505b806115ba81612080565b91505061155c565b506000816001600160401b038111156115dd576115dd611dcc565b6040519080825280601f01601f191660200182016040528015611607576020820181803683370190505b5090506000805b865181101561172257611622878288611b91565b156116ba5760005b855181101561169a57858181518110611645576116456120b0565b01602001516001600160f81b031916848461165f81612080565b955081518110611671576116716120b0565b60200101906001600160f81b031916908160001a9053508061169281612080565b91505061162a565b50600186516116a99190612099565b6116b39082611f85565b9050611710565b8681815181106116cc576116cc6120b0565b01602001516001600160f81b03191683836116e681612080565b9450815181106116f8576116f86120b0565b60200101906001600160f81b031916908160001a9053505b8061171a81612080565b91505061160e565b50909998505050505050505050565b6060816000036117585750506040805180820190915260018152600360fc1b602082015290565b8160005b8115611782578061176c81612080565b915061177b9050600a836120dc565b915061175c565b6000816001600160401b0381111561179c5761179c611dcc565b6040519080825280601f01601f1916602001820160405280156117c6576020820181803683370190505b5090505b84156113c2576117db600183612099565b91506117e8600a866120f0565b6117f3906030611f85565b60f81b818381518110611808576118086120b0565b60200101906001600160f81b031916908160001a90535061182a600a866120dc565b94506117ca565b600061183c836111b7565b805190915082156118a2576000336001600160a01b038316148061186557506118658233610456565b8061188057503361187586610568565b6001600160a01b0316145b9050806118a057604051632ce44b5f60e11b815260040160405180910390fd5b505b6118ae60008583610e47565b6001600160a01b0380821660008181526005602090815260408083208054600160801b6000196001600160401b0380841691909101811667ffffffffffffffff198416811783900482166001908101831690930277ffffffffffffffff0000000000000000ffffffffffffffff19909416179290921783558b86526004909452828520805460ff60e01b1942909316600160a01b026001600160e01b03199091169097179690961716600160e01b1785559189018084529220805491949091166119ac5760005482146119ac57805460208701516001600160401b0316600160a01b026001600160e01b03199091166001600160a01b038716171781555b5050604051869250600091506001600160a01b038416907fddf252ad1be2c89b69c2b068fc378daa952ba7f163c4a11628f55a4df523b3ef908390a4505060018054810190555050565b60606000611a05836002611f66565b611a10906002611f85565b6001600160401b03811115611a2757611a27611dcc565b6040519080825280601f01601f191660200182016040528015611a51576020820181803683370190505b509050600360fc1b81600081518110611a6c57611a6c6120b0565b60200101906001600160f81b031916908160001a905350600f60fb1b81600181518110611a9b57611a9b6120b0565b60200101906001600160f81b031916908160001a9053506000611abf846002611f66565b611aca906001611f85565b90505b6001811115611b42576f181899199a1a9b1b9c1cb0b131b232b360811b85600f1660108110611afe57611afe6120b0565b1a60f81b828281518110611b1457611b146120b0565b60200101906001600160f81b031916908160001a90535060049490941c93611b3b81612104565b9050611acd565b508315610b3e5760405162461bcd60e51b815260206004820181905260248201527f537472696e67733a20686578206c656e67746820696e73756666696369656e7460448201526064016106a8565b60008151838551611ba29190612099565b1015611bb057506000610b3e565b60005b8251811015611c2857828181518110611bce57611bce6120b0565b01602001516001600160f81b03191685611be88684611f85565b81518110611bf857611bf86120b0565b01602001516001600160f81b03191614611c16576000915050610b3e565b80611c2081612080565b915050611bb3565b506001949350505050565b6001600160e01b03198116811461109b57600080fd5b600060208284031215611c5b57600080fd5b8135610b3e81611c33565b80356001600160a01b0381168114611c7d57600080fd5b919050565b60008060408385031215611c9557600080fd5b611c9e83611c66565b946020939093013593505050565b60005b83811015611cc7578181015183820152602001611caf565b8381111561098c5750506000910152565b60008151808452611cf0816020860160208601611cac565b601f01601f19169290920160200192915050565b602081526000610b3e6020830184611cd8565b600060208284031215611d2957600080fd5b5035919050565b600080600060608486031215611d4557600080fd5b611d4e84611c66565b9250611d5c60208501611c66565b9150604084013590509250925092565b600060208284031215611d7e57600080fd5b610b3e82611c66565b801515811461109b57600080fd5b60008060408385031215611da857600080fd5b611db183611c66565b91506020830135611dc181611d87565b809150509250929050565b634e487b7160e01b600052604160045260246000fd5b604051601f8201601f191681016001600160401b0381118282101715611e0a57611e0a611dcc565b604052919050565b60006001600160401b03821115611e2b57611e2b611dcc565b50601f01601f191660200190565b60008060008060808587031215611e4f57600080fd5b611e5885611c66565b9350611e6660208601611c66565b92506040850135915060608501356001600160401b03811115611e8857600080fd5b8501601f81018713611e9957600080fd5b8035611eac611ea782611e12565b611de2565b818152886020838501011115611ec157600080fd5b8160208401602083013760006020838301015280935050505092959194509250565b60008060408385031215611ef657600080fd5b611eff83611c66565b9150611f0d60208401611c66565b90509250929050565b600181811c90821680611f2a57607f821691505b602082108103611f4a57634e487b7160e01b600052602260045260246000fd5b50919050565b634e487b7160e01b600052601160045260246000fd5b6000816000190483118215151615611f8057611f80611f50565b500290565b60008219821115611f9857611f98611f50565b500190565b600060208284031215611faf57600080fd5b8151610b3e81611d87565b600060208284031215611fcc57600080fd5b81516001600160401b03811115611fe257600080fd5b8201601f81018413611ff357600080fd5b8051612001611ea782611e12565b81815285602083850101111561201657600080fd5b612027826020830160208601611cac565b95945050505050565b6001600160a01b0385811682528416602082015260408101839052608060608201819052600090610e0490830184611cd8565b60006020828403121561207557600080fd5b8151610b3e81611c33565b60006001820161209257612092611f50565b5060010190565b6000828210156120ab576120ab611f50565b500390565b634e487b7160e01b600052603260045260246000fd5b634e487b7160e01b600052601260045260246000fd5b6000826120eb576120eb6120c6565b500490565b6000826120ff576120ff6120c6565b500690565b60008161211357612113611f50565b50600019019056fea26469706673582212204b943f0613da8729831ccfefe8553c70e74273697b29fc527b2500cc4f88b6f664736f6c634300080d0033",
    "linkReferences": {}
  }
}