{
  "abi": [
    {
      "inputs": [
        {
          "internalType": "string",
          "name": "name",
          "type": "string"
        },
        {
          "internalType": "string",
          "name": "symbol",
          "type": "string"
        }
      ],
      "stateMutability": "nonpayable",
      "type": "constructor"
    },
    {
      "anonymous": false,
      "inputs": [
        {
          "indexed": true,
          "internalType": "address",
          "name": "owner",
          "type": "address"
        },
        {
          "indexed": true,
          "internalType": "address",
          "name": "approved",
          "type": "address"
        },
        {
          "indexed": true,
          "internalType": "uint256",
          "name": "tokenId",
          "type": "uint256"
        }
      ],
      "name": "Approval",
      "type": "event"
    },
    {
      "anonymous": false,
      "inputs": [
        {
          "indexed": true,
          "internalType": "address",
          "name": "owner",
          "type": "address"
        },
        {
          "indexed": true,
          "internalType": "address",
          "name": "operator",
          "type": "address"
        },
        {
          "indexed": false,
          "internalType": "bool",
          "name": "approved",
          "type": "bool"
        }
      ],
      "name": "ApprovalForAll",
      "type": "event"
    },
    {
      "anonymous": false,
      "inputs": [
        {
          "indexed": false,
          "internalType": "uint256",
          "name": "amount",
          "type": "uint256"
        }
      ],
      "name": "CommissionWithdrawn",
      "type": "event"
    },
    {
      "anonymous": false,
      "inputs": [
        {
          "indexed": true,
          "internalType": "address",
          "name": "to",
          "type": "address"
        },
        {
          "indexed": true,
          "internalType": "address",
          "name": "contractAdddr",
          "type": "address"
        },
        {
          "indexed": true,
          "internalType": "uint256",
          "name": "tokenId",
          "type": "uint256"
        },
        {
          "indexed": false,
          "internalType": "uint256",
          "name": "newTokenId",
          "type": "uint256"
        },
        {
          "indexed": false,
          "internalType": "uint256",
          "name": "amount",
          "type": "uint256"
        }
      ],
      "name": "Mint",
      "type": "event"
    },
    {
      "anonymous": false,
      "inputs": [
        {
          "indexed": true,
          "internalType": "address",
          "name": "previousOwner",
          "type": "address"
        },
        {
          "indexed": true,
          "internalType": "address",
          "name": "newOwner",
          "type": "address"
        }
      ],
      "name": "OwnershipTransferred",
      "type": "event"
    },
    {
      "anonymous": false,
      "inputs": [
        {
          "indexed": false,
          "internalType": "address",
          "name": "account",
          "type": "address"
        }
      ],
      "name": "Paused",
      "type": "event"
    },
    {
      "anonymous": false,
      "inputs": [
        {
          "indexed": true,
          "internalType": "uint256",
          "name": "tokenId",
          "type": "uint256"
        },
        {
          "indexed": false,
          "internalType": "uint256",
          "name": "amount",
          "type": "uint256"
        },
        {
          "indexed": false,
          "internalType": "uint256",
          "name": "discount",
          "type": "uint256"
        }
      ],
      "name": "Refund",
      "type": "event"
    },
    {
      "anonymous": false,
      "inputs": [
        {
          "indexed": true,
          "internalType": "address",
          "name": "from",
          "type": "address"
        },
        {
          "indexed": true,
          "internalType": "address",
          "name": "to",
          "type": "address"
        },
        {
          "indexed": true,
          "internalType": "uint256",
          "name": "tokenId",
          "type": "uint256"
        }
      ],
      "name": "Transfer",
      "type": "event"
    },
    {
      "anonymous": false,
      "inputs": [
        {
          "indexed": true,
          "internalType": "address",
          "name": "from",
          "type": "address"
        },
        {
          "indexed": true,
          "internalType": "address",
          "name": "to",
          "type": "address"
        },
        {
          "indexed": true,
          "internalType": "uint256",
          "name": "tokenId",
          "type": "uint256"
        },
        {
          "indexed": false,
          "internalType": "uint256",
          "name": "amount",
          "type": "uint256"
        },
        {
          "indexed": false,
          "internalType": "uint256",
          "name": "discount",
          "type": "uint256"
        }
      ],
      "name": "TransferDiscount",
      "type": "event"
    },
    {
      "anonymous": false,
      "inputs": [
        {
          "indexed": false,
          "internalType": "address",
          "name": "account",
          "type": "address"
        }
      ],
      "name": "Unpaused",
      "type": "event"
    },
    {
      "inputs": [],
      "name": "_burnDiscount",
      "outputs": [
        {
          "internalType": "uint256",
          "name": "",
          "type": "uint256"
        }
      ],
      "stateMutability": "view",
      "type": "function"
    },
    {
      "inputs": [],
      "name": "_commission",
      "outputs": [
        {
          "internalType": "uint256",
          "name": "",
          "type": "uint256"
        }
      ],
      "stateMutability": "view",
      "type": "function"
    },
    {
      "inputs": [
        {
          "internalType": "uint256",
          "name": "",
          "type": "uint256"
        }
      ],
      "name": "_etherBalances",
      "outputs": [
        {
          "internalType": "uint256",
          "name": "",
          "type": "uint256"
        }
      ],
      "stateMutability": "view",
      "type": "function"
    },
    {
      "inputs": [],
      "name": "_mintPrice",
      "outputs": [
        {
          "internalType": "uint256",
          "name": "",
          "type": "uint256"
        }
      ],
      "stateMutability": "view",
      "type": "function"
    },
    {
      "inputs": [],
      "name": "_nextTokenId",
      "outputs": [
        {
          "internalType": "uint256",
          "name": "",
          "type": "uint256"
        }
      ],
      "stateMutability": "view",
      "type": "function"
    },
    {
      "inputs": [
        {
          "internalType": "uint256",
          "name": "",
          "type": "uint256"
        }
      ],
      "name": "_tokenId2contract",
      "outputs": [
        {
          "internalType": "address",
          "name": "",
          "type": "address"
        }
      ],
      "stateMutability": "view",
      "type": "function"
    },
    {
      "inputs": [
        {
          "internalType": "uint256",
          "name": "",
          "type": "uint256"
        }
      ],
      "name": "_tokenId2oriTokenId",
      "outputs": [
        {
          "internalType": "uint256",
          "name": "",
          "type": "uint256"
        }
      ],
      "stateMutability": "view",
      "type": "function"
    },
    {
      "inputs": [],
      "name": "_transferDiscount",
      "outputs": [
        {
          "internalType": "uint256",
          "name": "",
          "type": "uint256"
        }
      ],
      "stateMutability": "view",
      "type": "function"
    },
    {
      "inputs": [
        {
          "internalType": "bytes32",
          "name": "",
          "type": "bytes32"
        }
      ],
      "name": "_uniques",
      "outputs": [
        {
          "internalType": "uint256",
          "name": "",
          "type": "uint256"
        }
      ],
      "stateMutability": "view",
      "type": "function"
    },
    {
      "inputs": [
        {
          "internalType": "address",
          "name": "to",
          "type": "address"
        },
        {
          "internalType": "uint256",
          "name": "tokenId",
          "type": "uint256"
        }
      ],
      "name": "approve",
      "outputs": [],
      "stateMutability": "nonpayable",
      "type": "function"
    },
    {
      "inputs": [
        {
          "internalType": "address",
          "name": "owner",
          "type": "address"
        }
      ],
      "name": "balanceOf",
      "outputs": [
        {
          "internalType": "uint256",
          "name": "",
          "type": "uint256"
        }
      ],
      "stateMutability": "view",
      "type": "function"
    },
    {
      "inputs": [
        {
          "internalType": "address",
          "name": "contractAddr",
          "type": "address"
        },
        {
          "internalType": "uint256",
          "name": "tokenId",
          "type": "uint256"
        }
      ],
      "name": "copied",
      "outputs": [
        {
          "internalType": "bool",
          "name": "",
          "type": "bool"
        }
      ],
      "stateMutability": "view",
      "type": "function"
    },
    {
      "inputs": [
        {
          "internalType": "uint256",
          "name": "tokenId",
          "type": "uint256"
        }
      ],
      "name": "exists",
      "outputs": [
        {
          "internalType": "bool",
          "name": "",
          "type": "bool"
        }
      ],
      "stateMutability": "view",
      "type": "function"
    },
    {
      "inputs": [
        {
          "internalType": "uint256",
          "name": "tokenId",
          "type": "uint256"
        }
      ],
      "name": "getApproved",
      "outputs": [
        {
          "internalType": "address",
          "name": "",
          "type": "address"
        }
      ],
      "stateMutability": "view",
      "type": "function"
    },
    {
      "inputs": [
        {
          "internalType": "address",
          "name": "contractAddr",
          "type": "address"
        },
        {
          "internalType": "uint256",
          "name": "tokenId",
          "type": "uint256"
        }
      ],
      "name": "getTokenIdFromOriginal",
      "outputs": [
        {
          "internalType": "uint256",
          "name": "",
          "type": "uint256"
        }
      ],
      "stateMutability": "view",
      "type": "function"
    },
    {
      "inputs": [
        {
          "internalType": "address",
          "name": "owner",
          "type": "address"
        },
        {
          "internalType": "address",
          "name": "operator",
          "type": "address"
        }
      ],
      "name": "isApprovedForAll",
      "outputs": [
        {
          "internalType": "bool",
          "name": "",
          "type": "bool"
        }
      ],
      "stateMutability": "view",
      "type": "function"
    },
    {
      "inputs": [
        {
          "internalType": "address",
          "name": "to",
          "type": "address"
        },
        {
          "internalType": "address",
          "name": "contractAddr",
          "type": "address"
        },
        {
          "internalType": "uint256",
          "name": "tokenId",
          "type": "uint256"
        }
      ],
      "name": "mint",
      "outputs": [
        {
          "internalType": "uint256",
          "name": "",
          "type": "uint256"
        }
      ],
      "stateMutability": "payable",
      "type": "function"
    },
    {
      "inputs": [],
      "name": "name",
      "outputs": [
        {
          "internalType": "string",
          "name": "",
          "type": "string"
        }
      ],
      "stateMutability": "view",
      "type": "function"
    },
    {
      "inputs": [
        {
          "internalType": "address",
          "name": "owner",
          "type": "address"
        }
      ],
      "name": "ownedTokensByAddress",
      "outputs": [
        {
          "internalType": "uint256[]",
          "name": "",
          "type": "uint256[]"
        }
      ],
      "stateMutability": "view",
      "type": "function"
    },
    {
      "inputs": [],
      "name": "owner",
      "outputs": [
        {
          "internalType": "address",
          "name": "",
          "type": "address"
        }
      ],
      "stateMutability": "view",
      "type": "function"
    },
    {
      "inputs": [
        {
          "internalType": "uint256",
          "name": "tokenId",
          "type": "uint256"
        }
      ],
      "name": "ownerOf",
      "outputs": [
        {
          "internalType": "address",
          "name": "",
          "type": "address"
        }
      ],
      "stateMutability": "view",
      "type": "function"
    },
    {
      "inputs": [],
      "name": "pause",
      "outputs": [],
      "stateMutability": "nonpayable",
      "type": "function"
    },
    {
      "inputs": [],
      "name": "paused",
      "outputs": [
        {
          "internalType": "bool",
          "name": "",
          "type": "bool"
        }
      ],
      "stateMutability": "view",
      "type": "function"
    },
    {
      "inputs": [
        {
          "internalType": "uint256",
          "name": "tokenId",
          "type": "uint256"
        }
      ],
      "name": "refund",
      "outputs": [],
      "stateMutability": "nonpayable",
      "type": "function"
    },
    {
      "inputs": [],
      "name": "renounceOwnership",
      "outputs": [],
      "stateMutability": "nonpayable",
      "type": "function"
    },
    {
      "inputs": [
        {
          "internalType": "address",
          "name": "from",
          "type": "address"
        },
        {
          "internalType": "address",
          "name": "to",
          "type": "address"
        },
        {
          "internalType": "uint256",
          "name": "tokenId",
          "type": "uint256"
        }
      ],
      "name": "safeTransferFrom",
      "outputs": [],
      "stateMutability": "nonpayable",
      "type": "function"
    },
    {
      "inputs": [
        {
          "internalType": "address",
          "name": "from",
          "type": "address"
        },
        {
          "internalType": "address",
          "name": "to",
          "type": "address"
        },
        {
          "internalType": "uint256",
          "name": "tokenId",
          "type": "uint256"
        },
        {
          "internalType": "bytes",
          "name": "_data",
          "type": "bytes"
        }
      ],
      "name": "safeTransferFrom",
      "outputs": [],
      "stateMutability": "nonpayable",
      "type": "function"
    },
    {
      "inputs": [
        {
          "internalType": "address",
          "name": "operator",
          "type": "address"
        },
        {
          "internalType": "bool",
          "name": "approved",
          "type": "bool"
        }
      ],
      "name": "setApprovalForAll",
      "outputs": [],
      "stateMutability": "nonpayable",
      "type": "function"
    },
    {
      "inputs": [
        {
          "internalType": "bytes4",
          "name": "interfaceId",
          "type": "bytes4"
        }
      ],
      "name": "supportsInterface",
      "outputs": [
        {
          "internalType": "bool",
          "name": "",
          "type": "bool"
        }
      ],
      "stateMutability": "view",
      "type": "function"
    },
    {
      "inputs": [],
      "name": "symbol",
      "outputs": [
        {
          "internalType": "string",
          "name": "",
          "type": "string"
        }
      ],
      "stateMutability": "view",
      "type": "function"
    },
    {
      "inputs": [
        {
          "internalType": "uint256",
          "name": "index",
          "type": "uint256"
        }
      ],
      "name": "tokenByIndex",
      "outputs": [
        {
          "internalType": "uint256",
          "name": "",
          "type": "uint256"
        }
      ],
      "stateMutability": "view",
      "type": "function"
    },
    {
      "inputs": [
        {
          "internalType": "address",
          "name": "owner",
          "type": "address"
        },
        {
          "internalType": "uint256",
          "name": "index",
          "type": "uint256"
        }
      ],
      "name": "tokenOfOwnerByIndex",
      "outputs": [
        {
          "internalType": "uint256",
          "name": "",
          "type": "uint256"
        }
      ],
      "stateMutability": "view",
      "type": "function"
    },
    {
      "inputs": [
        {
          "internalType": "uint256",
          "name": "tokenId",
          "type": "uint256"
        }
      ],
      "name": "tokenURI",
      "outputs": [
        {
          "internalType": "string",
          "name": "",
          "type": "string"
        }
      ],
      "stateMutability": "view",
      "type": "function"
    },
    {
      "inputs": [],
      "name": "totalSupply",
      "outputs": [
        {
          "internalType": "uint256",
          "name": "",
          "type": "uint256"
        }
      ],
      "stateMutability": "view",
      "type": "function"
    },
    {
      "inputs": [
        {
          "internalType": "address",
          "name": "from",
          "type": "address"
        },
        {
          "internalType": "address",
          "name": "to",
          "type": "address"
        },
        {
          "internalType": "uint256",
          "name": "tokenId",
          "type": "uint256"
        }
      ],
      "name": "transferFrom",
      "outputs": [],
      "stateMutability": "nonpayable",
      "type": "function"
    },
    {
      "inputs": [
        {
          "internalType": "address",
          "name": "newOwner",
          "type": "address"
        }
      ],
      "name": "transferOwnership",
      "outputs": [],
      "stateMutability": "nonpayable",
      "type": "function"
    },
    {
      "inputs": [],
      "name": "unpause",
      "outputs": [],
      "stateMutability": "nonpayable",
      "type": "function"
    },
    {
      "inputs": [],
      "name": "withdrawCommission",
      "outputs": [
        {
          "internalType": "uint256",
          "name": "",
          "type": "uint256"
        }
      ],
      "stateMutability": "nonpayable",
      "type": "function"
    }
  ],
  "bytecode": {
    "object": "0x60806040523480156200001157600080fd5b5060405162002bb438038062002bb4833981016040819052620000349162000255565b8151829082906200004d906000906020850190620000e2565b50805162000063906001906020840190620000e2565b50506001600a5550620000763362000090565b5050600b805460ff60a01b191690556001601155620002fc565b600b80546001600160a01b038381166001600160a01b0319831681179093556040519116919082907f8be0079c531659141344cd1fd0a4f28419497f9722a3daafe3b4186f6b6457e090600090a35050565b828054620000f090620002bf565b90600052602060002090601f0160209004810192826200011457600085556200015f565b82601f106200012f57805160ff19168380011785556200015f565b828001600101855582156200015f579182015b828111156200015f57825182559160200191906001019062000142565b506200016d92915062000171565b5090565b5b808211156200016d576000815560010162000172565b634e487b7160e01b600052604160045260246000fd5b600082601f830112620001b057600080fd5b81516001600160401b0380821115620001cd57620001cd62000188565b604051601f8301601f19908116603f01168101908282118183101715620001f857620001f862000188565b816040528381526020925086838588010111156200021557600080fd5b600091505b838210156200023957858201830151818301840152908201906200021a565b838211156200024b5760008385830101525b9695505050505050565b600080604083850312156200026957600080fd5b82516001600160401b03808211156200028157600080fd5b6200028f868387016200019e565b93506020850151915080821115620002a657600080fd5b50620002b5858286016200019e565b9150509250929050565b600181811c90821680620002d457607f821691505b60208210811415620002f657634e487b7160e01b600052602260045260246000fd5b50919050565b6128a8806200030c6000396000f3fe6080604052600436106102255760003560e01c806370a0823111610123578063b88d4fde116100ab578063c87b56dd1161006f578063c87b56dd14610650578063dba028c214610670578063e985e9c51461069d578063f0207fb1146106e6578063f2fde38b146106fc57600080fd5b8063b88d4fde1461058d578063c287f2d1146105ad578063c4098692146105da578063c6c3bbe614610607578063c71bd2431461061a57600080fd5b80638da5cb5b116100f25780638da5cb5b146104ed57806395d89b411461050b5780639fc8279d14610520578063a22cb46514610540578063b44963371461056057600080fd5b806370a0823114610483578063715018a6146104a357806382cc6e8f146104b85780638456cb59146104d857600080fd5b80632f745c59116101b15780634f558e79116101755780634f558e79146103ef5780634f6ccce71461040f5780635c975abb1461042f5780636352211e1461044e578063666b6cd51461046e57600080fd5b80632f745c591461036f5780633e25e8371461038f5780633f4ba83a146103a457806342842e0e146103b95780634a60f620146103d957600080fd5b8063095ea7b3116101f8578063095ea7b3146102e35780630a1d6b651461030557806318160ddd1461031a57806323b872dd1461032f578063278ecde11461034f57600080fd5b806301ffc9a71461022a5780630387da421461025f57806306fdde0314610289578063081812fc146102ab575b600080fd5b34801561023657600080fd5b5061024a610245366004612262565b61071c565b60405190151581526020015b60405180910390f35b34801561026b57600080fd5b5061027b67016345785d8a000081565b604051908152602001610256565b34801561029557600080fd5b5061029e610747565b60405161025691906122d7565b3480156102b757600080fd5b506102cb6102c63660046122ea565b6107d9565b6040516001600160a01b039091168152602001610256565b3480156102ef57600080fd5b506103036102fe36600461231f565b610866565b005b34801561031157600080fd5b5061027b600a81565b34801561032657600080fd5b5060085461027b565b34801561033b57600080fd5b5061030361034a366004612349565b61097c565b34801561035b57600080fd5b5061030361036a3660046122ea565b6109ad565b34801561037b57600080fd5b5061027b61038a36600461231f565b610b1e565b34801561039b57600080fd5b5061027b610bb4565b3480156103b057600080fd5b50610303610c7e565b3480156103c557600080fd5b506103036103d4366004612349565b610cb2565b3480156103e557600080fd5b5061027b60115481565b3480156103fb57600080fd5b5061024a61040a3660046122ea565b610ccd565b34801561041b57600080fd5b5061027b61042a3660046122ea565b610cd8565b34801561043b57600080fd5b50600b54600160a01b900460ff1661024a565b34801561045a57600080fd5b506102cb6104693660046122ea565b610d6b565b34801561047a57600080fd5b5061027b600581565b34801561048f57600080fd5b5061027b61049e366004612385565b610de2565b3480156104af57600080fd5b50610303610e69565b3480156104c457600080fd5b5061024a6104d336600461231f565b610e9d565b3480156104e457600080fd5b50610303610f0f565b3480156104f957600080fd5b50600b546001600160a01b03166102cb565b34801561051757600080fd5b5061029e610f41565b34801561052c57600080fd5b5061027b61053b36600461231f565b610f50565b34801561054c57600080fd5b5061030361055b3660046123ae565b610fb8565b34801561056c57600080fd5b5061027b61057b3660046122ea565b600f6020526000908152604090205481565b34801561059957600080fd5b506103036105a8366004612454565b610fc7565b3480156105b957600080fd5b5061027b6105c83660046122ea565b600d6020526000908152604090205481565b3480156105e657600080fd5b5061027b6105f53660046122ea565b600e6020526000908152604090205481565b61027b610615366004612349565b610fff565b34801561062657600080fd5b506102cb6106353660046122ea565b600c602052600090815260409020546001600160a01b031681565b34801561065c57600080fd5b5061029e61066b3660046122ea565b611223565b34801561067c57600080fd5b5061069061068b366004612385565b6114ab565b60405161025691906124ff565b3480156106a957600080fd5b5061024a6106b8366004612543565b6001600160a01b03918216600090815260056020908152604080832093909416825291909152205460ff1690565b3480156106f257600080fd5b5061027b60105481565b34801561070857600080fd5b50610303610717366004612385565b61154d565b60006001600160e01b0319821663780e9d6360e01b14806107415750610741826115e8565b92915050565b60606000805461075690612576565b80601f016020809104026020016040519081016040528092919081815260200182805461078290612576565b80156107cf5780601f106107a4576101008083540402835291602001916107cf565b820191906000526020600020905b8154815290600101906020018083116107b257829003601f168201915b5050505050905090565b60006107e482611638565b61084a5760405162461bcd60e51b815260206004820152602c60248201527f4552433732313a20617070726f76656420717565727920666f72206e6f6e657860448201526b34b9ba32b73a103a37b5b2b760a11b60648201526084015b60405180910390fd5b506000908152600460205260409020546001600160a01b031690565b600061087182610d6b565b9050806001600160a01b0316836001600160a01b031614156108df5760405162461bcd60e51b815260206004820152602160248201527f4552433732313a20617070726f76616c20746f2063757272656e74206f776e656044820152603960f91b6064820152608401610841565b336001600160a01b03821614806108fb57506108fb81336106b8565b61096d5760405162461bcd60e51b815260206004820152603860248201527f4552433732313a20617070726f76652063616c6c6572206973206e6f74206f7760448201527f6e6572206e6f7220617070726f76656420666f7220616c6c00000000000000006064820152608401610841565b6109778383611655565b505050565b61098633826116c3565b6109a25760405162461bcd60e51b8152600401610841906125b1565b6109778383836117a9565b6002600a5414156109d05760405162461bcd60e51b815260040161084190612602565b6002600a55336109df82610d6b565b6001600160a01b031614610a355760405162461bcd60e51b815260206004820152601c60248201527f53796e7468657469634e46543a206d757374206f776e20746f6b656e000000006044820152606401610841565b610a3e81611950565b6000818152600f6020526040812054606490610a5c90600a9061264f565b610a66919061266e565b6000838152600f602052604081205491925090610a84908390612690565b90508160106000828254610a9891906126a7565b90915550506000838152600f602052604080822082905551339183156108fc02918491818181858888f19350505050158015610ad8573d6000803e3d6000fd5b50604080518281526020810184905284917faf75745f7008ec1758a2b1ac2a9f510ae299542d33c316edcb8e1d6b899c8fc9910160405180910390a250506001600a5550565b6000610b2983610de2565b8210610b8b5760405162461bcd60e51b815260206004820152602b60248201527f455243373231456e756d657261626c653a206f776e657220696e646578206f7560448201526a74206f6620626f756e647360a81b6064820152608401610841565b506001600160a01b03919091166000908152600660209081526040808320938352929052205490565b60006002600a541415610bd95760405162461bcd60e51b815260040161084190612602565b6002600a55600b546001600160a01b03163314610c085760405162461bcd60e51b8152600401610841906126bf565b601080546000918290556040519091339183156108fc0291849190818181858888f19350505050158015610c40573d6000803e3d6000fd5b506040518181527fc2bb3206848157e57e737eec7e141f06f5de585e2f1c0f0ec60a04f45a2c00319060200160405180910390a190506001600a5590565b600b546001600160a01b03163314610ca85760405162461bcd60e51b8152600401610841906126bf565b610cb06119f7565b565b61097783838360405180602001604052806000815250610fc7565b600061074182611638565b6000610ce360085490565b8210610d465760405162461bcd60e51b815260206004820152602c60248201527f455243373231456e756d657261626c653a20676c6f62616c20696e646578206f60448201526b7574206f6620626f756e647360a01b6064820152608401610841565b60088281548110610d5957610d596126f4565b90600052602060002001549050919050565b6000818152600260205260408120546001600160a01b0316806107415760405162461bcd60e51b815260206004820152602960248201527f4552433732313a206f776e657220717565727920666f72206e6f6e657869737460448201526832b73a103a37b5b2b760b91b6064820152608401610841565b60006001600160a01b038216610e4d5760405162461bcd60e51b815260206004820152602a60248201527f4552433732313a2062616c616e636520717565727920666f7220746865207a65604482015269726f206164647265737360b01b6064820152608401610841565b506001600160a01b031660009081526003602052604090205490565b600b546001600160a01b03163314610e935760405162461bcd60e51b8152600401610841906126bf565b610cb06000611a94565b604080516001600160a01b0384166020820152908101829052600090819060600160408051601f1981840301815291815281516020928301206000818152600e90935291205490915015801590610f0757506000818152600e6020526040902054610f0790611638565b949350505050565b600b546001600160a01b03163314610f395760405162461bcd60e51b8152600401610841906126bf565b610cb0611ae6565b60606001805461075690612576565b604080516001600160a01b0384166020820152908101829052600090819060600160408051601f1981840301815291815281516020928301206000818152600e909352912054909150610fa281611638565b610fad576000610faf565b805b95945050505050565b610fc3338383611b6e565b5050565b610fd133836116c3565b610fed5760405162461bcd60e51b8152600401610841906125b1565b610ff984848484611c3d565b50505050565b60006002600a5414156110245760405162461bcd60e51b815260040161084190612602565b6002600a5567016345785d8a00003410156110815760405162461bcd60e51b815260206004820152601b60248201527f53796e7468657469634e46543a20696e76616c696420707269636500000000006044820152606401610841565b604080516001600160a01b0385166020820152908101839052600090819060600160408051601f1981840301815291815281516020928301206000818152600e9093529120549091501561113b576000818152600e602052604090205491506110e982611638565b156111365760405162461bcd60e51b815260206004820152601c60248201527f53796e7468657469634e46543a20616c7265616479206d696e746564000000006044820152606401610841565b611163565b6011805490600061114b8361270a565b909155506000828152600e6020526040902081905591505b6000828152600c6020908152604080832080546001600160a01b0319166001600160a01b038a16179055600d8252808320879055600f909152812080543492906111ae9084906126a7565b909155506111be90508683611c70565b83856001600160a01b0316876001600160a01b03167f458f5fa412d0f69b08dd84872b0215675cc67bc1d5b6fd93300a1c3878b86196853460405161120d929190918252602082015260400190565b60405180910390a4506001600a55949350505050565b606061122e82611638565b6112905760405162461bcd60e51b815260206004820152602d60248201527f53796e7468657469634e46543a2055524920717565727920666f72206e6f6e6560448201526c3c34b9ba32b73a103a37b5b2b760991b6064820152608401610841565b6000828152600c6020526040908190205490516301ffc9a760e01b8152636cdb3d1360e11b60048201526001600160a01b039091169081906301ffc9a790602401602060405180830381865afa1580156112ee573d6000803e3d6000fd5b505050506040513d601f19601f820116820180604052508101906113129190612725565b156113a7576000838152600c6020908152604080832054600d909252918290205491516303a24d0760e21b815260048101929092526001600160a01b031690630e89341c906024015b600060405180830381865afa158015611378573d6000803e3d6000fd5b505050506040513d6000823e601f3d908101601f191682016040526113a09190810190612742565b9392505050565b6040516301ffc9a760e01b81526380ac58cd60e01b60048201526001600160a01b038216906301ffc9a790602401602060405180830381865afa1580156113f2573d6000803e3d6000fd5b505050506040513d601f19601f820116820180604052508101906114169190612725565b15611463576000838152600c6020908152604080832054600d9092529182902054915163c87b56dd60e01b815260048101929092526001600160a01b03169063c87b56dd9060240161135b565b60405162461bcd60e51b815260206004820152601e60248201527f6f6e6c7920737570706f727420373231206f72203131353520746f6b656e00006044820152606401610841565b606060006114b883610de2565b905060008167ffffffffffffffff8111156114d5576114d56123e5565b6040519080825280602002602001820160405280156114fe578160200160208202803683370190505b50905060005b82811015611545576115168582610b1e565b828281518110611528576115286126f4565b60209081029190910101528061153d8161270a565b915050611504565b509392505050565b600b546001600160a01b031633146115775760405162461bcd60e51b8152600401610841906126bf565b6001600160a01b0381166115dc5760405162461bcd60e51b815260206004820152602660248201527f4f776e61626c653a206e6577206f776e657220697320746865207a65726f206160448201526564647265737360d01b6064820152608401610841565b6115e581611a94565b50565b60006001600160e01b031982166380ac58cd60e01b148061161957506001600160e01b03198216635b5e139f60e01b145b8061074157506301ffc9a760e01b6001600160e01b0319831614610741565b6000908152600260205260409020546001600160a01b0316151590565b600081815260046020526040902080546001600160a01b0319166001600160a01b038416908117909155819061168a82610d6b565b6001600160a01b03167f8c5be1e5ebec7d5bd14f71427d1e84f3dd0314c0f7b2291e5b200ac8c7c3b92560405160405180910390a45050565b60006116ce82611638565b61172f5760405162461bcd60e51b815260206004820152602c60248201527f4552433732313a206f70657261746f7220717565727920666f72206e6f6e657860448201526b34b9ba32b73a103a37b5b2b760a11b6064820152608401610841565b600061173a83610d6b565b9050806001600160a01b0316846001600160a01b031614806117755750836001600160a01b031661176a846107d9565b6001600160a01b0316145b80610f0757506001600160a01b0380821660009081526005602090815260408083209388168352929052205460ff16610f07565b826001600160a01b03166117bc82610d6b565b6001600160a01b0316146118205760405162461bcd60e51b815260206004820152602560248201527f4552433732313a207472616e736665722066726f6d20696e636f72726563742060448201526437bbb732b960d91b6064820152608401610841565b6001600160a01b0382166118825760405162461bcd60e51b8152602060048201526024808201527f4552433732313a207472616e7366657220746f20746865207a65726f206164646044820152637265737360e01b6064820152608401610841565b61188d838383611daf565b611898600082611655565b6001600160a01b03831660009081526003602052604081208054600192906118c1908490612690565b90915550506001600160a01b03821660009081526003602052604081208054600192906118ef9084906126a7565b909155505060008181526002602052604080822080546001600160a01b0319166001600160a01b0386811691821790925591518493918716917fddf252ad1be2c89b69c2b068fc378daa952ba7f163c4a11628f55a4df523b3ef91a4505050565b600061195b82610d6b565b905061196981600084611daf565b611974600083611655565b6001600160a01b038116600090815260036020526040812080546001929061199d908490612690565b909155505060008281526002602052604080822080546001600160a01b0319169055518391906001600160a01b038416907fddf252ad1be2c89b69c2b068fc378daa952ba7f163c4a11628f55a4df523b3ef908390a45050565b600b54600160a01b900460ff16611a475760405162461bcd60e51b815260206004820152601460248201527314185d5cd8589b194e881b9bdd081c185d5cd95960621b6044820152606401610841565b600b805460ff60a01b191690557f5db9ee0a495bf2e6ff9c91a7834c1ba4fdd244a5e8aa4e537bd38aeae4b073aa335b6040516001600160a01b03909116815260200160405180910390a1565b600b80546001600160a01b038381166001600160a01b0319831681179093556040519116919082907f8be0079c531659141344cd1fd0a4f28419497f9722a3daafe3b4186f6b6457e090600090a35050565b600b54600160a01b900460ff1615611b335760405162461bcd60e51b815260206004820152601060248201526f14185d5cd8589b194e881c185d5cd95960821b6044820152606401610841565b600b805460ff60a01b1916600160a01b1790557f62e78cea01bee320cd4e420270b5ea74000d11b0c9f74754ebdbfc544b05a258611a773390565b816001600160a01b0316836001600160a01b03161415611bd05760405162461bcd60e51b815260206004820152601960248201527f4552433732313a20617070726f766520746f2063616c6c6572000000000000006044820152606401610841565b6001600160a01b03838116600081815260056020908152604080832094871680845294825291829020805460ff191686151590811790915591519182527f17307eab39ab6107e8899845ad3d59bd9653f200f220920489ca2b5937696c31910160405180910390a3505050565b611c488484846117a9565b611c5484848484611f06565b610ff95760405162461bcd60e51b8152600401610841906127b0565b6001600160a01b038216611cc65760405162461bcd60e51b815260206004820181905260248201527f4552433732313a206d696e7420746f20746865207a65726f20616464726573736044820152606401610841565b611ccf81611638565b15611d1c5760405162461bcd60e51b815260206004820152601c60248201527f4552433732313a20746f6b656e20616c7265616479206d696e746564000000006044820152606401610841565b611d2860008383611daf565b6001600160a01b0382166000908152600360205260408120805460019290611d519084906126a7565b909155505060008181526002602052604080822080546001600160a01b0319166001600160a01b03861690811790915590518392907fddf252ad1be2c89b69c2b068fc378daa952ba7f163c4a11628f55a4df523b3ef908290a45050565b600b54600160a01b900460ff1615611dfc5760405162461bcd60e51b815260206004820152601060248201526f14185d5cd8589b194e881c185d5cd95960821b6044820152606401610841565b611e07838383612004565b816001600160a01b0316836001600160a01b031614158015611e3157506001600160a01b03831615155b8015611e4557506001600160a01b03821615155b15610977576000818152600f6020526040812054906064611e6760058461264f565b611e71919061266e565b905080600f60008581526020019081526020016000206000828254611e969190612690565b925050819055508060106000828254611eaf91906126a7565b9091555050604080518381526020810183905284916001600160a01b0380881692908916917f5f57a887341e52cf414874998a4ed5d9429f7c07960b756834e56cad4a1e6657910160405180910390a45050505050565b60006001600160a01b0384163b15611ff957604051630a85bd0160e11b81526001600160a01b0385169063150b7a0290611f4a903390899088908890600401612802565b6020604051808303816000875af1925050508015611f85575060408051601f3d908101601f19168201909252611f829181019061283f565b60015b611fdf573d808015611fb3576040519150601f19603f3d011682016040523d82523d6000602084013e611fb8565b606091505b508051611fd75760405162461bcd60e51b8152600401610841906127b0565b805181602001fd5b6001600160e01b031916630a85bd0160e11b149050610f07565b506001949350505050565b6001600160a01b03831661205f5761205a81600880546000838152600960205260408120829055600182018355919091527ff3f7a9fe364faab93b216da50a3214154f22a0a2b415b23a84c8169e8b636ee30155565b612082565b816001600160a01b0316836001600160a01b0316146120825761208283826120bc565b6001600160a01b0382166120995761097781612159565b826001600160a01b0316826001600160a01b031614610977576109778282612208565b600060016120c984610de2565b6120d39190612690565b600083815260076020526040902054909150808214612126576001600160a01b03841660009081526006602090815260408083208584528252808320548484528184208190558352600790915290208190555b5060009182526007602090815260408084208490556001600160a01b039094168352600681528383209183525290812055565b60085460009061216b90600190612690565b60008381526009602052604081205460088054939450909284908110612193576121936126f4565b9060005260206000200154905080600883815481106121b4576121b46126f4565b60009182526020808320909101929092558281526009909152604080822084905585825281205560088054806121ec576121ec61285c565b6001900381819060005260206000200160009055905550505050565b600061221383610de2565b6001600160a01b039093166000908152600660209081526040808320868452825280832085905593825260079052919091209190915550565b6001600160e01b0319811681146115e557600080fd5b60006020828403121561227457600080fd5b81356113a08161224c565b60005b8381101561229a578181015183820152602001612282565b83811115610ff95750506000910152565b600081518084526122c381602086016020860161227f565b601f01601f19169290920160200192915050565b6020815260006113a060208301846122ab565b6000602082840312156122fc57600080fd5b5035919050565b80356001600160a01b038116811461231a57600080fd5b919050565b6000806040838503121561233257600080fd5b61233b83612303565b946020939093013593505050565b60008060006060848603121561235e57600080fd5b61236784612303565b925061237560208501612303565b9150604084013590509250925092565b60006020828403121561239757600080fd5b6113a082612303565b80151581146115e557600080fd5b600080604083850312156123c157600080fd5b6123ca83612303565b915060208301356123da816123a0565b809150509250929050565b634e487b7160e01b600052604160045260246000fd5b604051601f8201601f1916810167ffffffffffffffff81118282101715612424576124246123e5565b604052919050565b600067ffffffffffffffff821115612446576124466123e5565b50601f01601f191660200190565b6000806000806080858703121561246a57600080fd5b61247385612303565b935061248160208601612303565b925060408501359150606085013567ffffffffffffffff8111156124a457600080fd5b8501601f810187136124b557600080fd5b80356124c86124c38261242c565b6123fb565b8181528860208385010111156124dd57600080fd5b8160208401602083013760006020838301015280935050505092959194509250565b6020808252825182820181905260009190848201906040850190845b818110156125375783518352928401929184019160010161251b565b50909695505050505050565b6000806040838503121561255657600080fd5b61255f83612303565b915061256d60208401612303565b90509250929050565b600181811c9082168061258a57607f821691505b602082108114156125ab57634e487b7160e01b600052602260045260246000fd5b50919050565b60208082526031908201527f4552433732313a207472616e736665722063616c6c6572206973206e6f74206f6040820152701ddb995c881b9bdc88185c1c1c9bdd9959607a1b606082015260800190565b6020808252601f908201527f5265656e7472616e637947756172643a207265656e7472616e742063616c6c00604082015260600190565b634e487b7160e01b600052601160045260246000fd5b600081600019048311821515161561266957612669612639565b500290565b60008261268b57634e487b7160e01b600052601260045260246000fd5b500490565b6000828210156126a2576126a2612639565b500390565b600082198211156126ba576126ba612639565b500190565b6020808252818101527f4f776e61626c653a2063616c6c6572206973206e6f7420746865206f776e6572604082015260600190565b634e487b7160e01b600052603260045260246000fd5b600060001982141561271e5761271e612639565b5060010190565b60006020828403121561273757600080fd5b81516113a0816123a0565b60006020828403121561275457600080fd5b815167ffffffffffffffff81111561276b57600080fd5b8201601f8101841361277c57600080fd5b805161278a6124c38261242c565b81815285602083850101111561279f57600080fd5b610faf82602083016020860161227f565b60208082526032908201527f4552433732313a207472616e7366657220746f206e6f6e20455243373231526560408201527131b2b4bb32b91034b6b83632b6b2b73a32b960711b606082015260800190565b6001600160a01b0385811682528416602082015260408101839052608060608201819052600090612835908301846122ab565b9695505050505050565b60006020828403121561285157600080fd5b81516113a08161224c565b634e487b7160e01b600052603160045260246000fdfea2646970667358221220de70ed624812c7244356f55f2ec351b41267dfde6e603cfeb9189416422c4d1e64736f6c634300080a0033",
    "linkReferences": {}
  }
}