{
  "abi": [
    {
      "inputs": [
        {
          "internalType": "string",
          "name": "name",
          "type": "string"
        },
        {
          "internalType": "string",
          "name": "symbol",
          "type": "string"
        }
      ],
      "stateMutability": "nonpayable",
      "type": "constructor"
    },
    {
      "inputs": [],
      "name": "ApprovalCallerNotOwnerNorApproved",
      "type": "error"
    },
    {
      "inputs": [],
      "name": "ApprovalQueryForNonexistentToken",
      "type": "error"
    },
    {
      "inputs": [],
      "name": "ApprovalToCurrentOwner",
      "type": "error"
    },
    {
      "inputs": [],
      "name": "ApproveToCaller",
      "type": "error"
    },
    {
      "inputs": [],
      "name": "BalanceQueryForZeroAddress",
      "type": "error"
    },
    {
      "inputs": [],
      "name": "MintToZeroAddress",
      "type": "error"
    },
    {
      "inputs": [],
      "name": "MintZeroQuantity",
      "type": "error"
    },
    {
      "inputs": [],
      "name": "OwnerQueryForNonexistentToken",
      "type": "error"
    },
    {
      "inputs": [],
      "name": "TransferCallerNotOwnerNorApproved",
      "type": "error"
    },
    {
      "inputs": [],
      "name": "TransferFromIncorrectOwner",
      "type": "error"
    },
    {
      "inputs": [],
      "name": "TransferToNonERC721ReceiverImplementer",
      "type": "error"
    },
    {
      "inputs": [],
      "name": "TransferToZeroAddress",
      "type": "error"
    },
    {
      "anonymous": false,
      "inputs": [
        {
          "indexed": true,
          "internalType": "address",
          "name": "owner",
          "type": "address"
        },
        {
          "indexed": true,
          "internalType": "address",
          "name": "approved",
          "type": "address"
        },
        {
          "indexed": true,
          "internalType": "uint256",
          "name": "tokenId",
          "type": "uint256"
        }
      ],
      "name": "Approval",
      "type": "event"
    },
    {
      "anonymous": false,
      "inputs": [
        {
          "indexed": true,
          "internalType": "address",
          "name": "owner",
          "type": "address"
        },
        {
          "indexed": true,
          "internalType": "address",
          "name": "operator",
          "type": "address"
        },
        {
          "indexed": false,
          "internalType": "bool",
          "name": "approved",
          "type": "bool"
        }
      ],
      "name": "ApprovalForAll",
      "type": "event"
    },
    {
      "anonymous": false,
      "inputs": [
        {
          "indexed": true,
          "internalType": "address",
          "name": "to",
          "type": "address"
        },
        {
          "indexed": true,
          "internalType": "address",
          "name": "contractAdddr",
          "type": "address"
        },
        {
          "indexed": true,
          "internalType": "uint256",
          "name": "tokenId",
          "type": "uint256"
        },
        {
          "indexed": false,
          "internalType": "uint256",
          "name": "newTokenId",
          "type": "uint256"
        },
        {
          "indexed": false,
          "internalType": "uint256",
          "name": "amount",
          "type": "uint256"
        }
      ],
      "name": "Mint",
      "type": "event"
    },
    {
      "anonymous": false,
      "inputs": [
        {
          "indexed": true,
          "internalType": "address",
          "name": "previousOwner",
          "type": "address"
        },
        {
          "indexed": true,
          "internalType": "address",
          "name": "newOwner",
          "type": "address"
        }
      ],
      "name": "OwnershipTransferred",
      "type": "event"
    },
    {
      "anonymous": false,
      "inputs": [
        {
          "indexed": false,
          "internalType": "address",
          "name": "account",
          "type": "address"
        }
      ],
      "name": "Paused",
      "type": "event"
    },
    {
      "anonymous": false,
      "inputs": [
        {
          "indexed": true,
          "internalType": "uint256",
          "name": "tokenId",
          "type": "uint256"
        },
        {
          "indexed": false,
          "internalType": "uint256",
          "name": "amount",
          "type": "uint256"
        }
      ],
      "name": "Refund",
      "type": "event"
    },
    {
      "anonymous": false,
      "inputs": [
        {
          "indexed": true,
          "internalType": "address",
          "name": "from",
          "type": "address"
        },
        {
          "indexed": true,
          "internalType": "address",
          "name": "to",
          "type": "address"
        },
        {
          "indexed": true,
          "internalType": "uint256",
          "name": "tokenId",
          "type": "uint256"
        }
      ],
      "name": "Transfer",
      "type": "event"
    },
    {
      "anonymous": false,
      "inputs": [
        {
          "indexed": false,
          "internalType": "address",
          "name": "account",
          "type": "address"
        }
      ],
      "name": "Unpaused",
      "type": "event"
    },
    {
      "inputs": [
        {
          "internalType": "uint256",
          "name": "",
          "type": "uint256"
        }
      ],
      "name": "_etherBalances",
      "outputs": [
        {
          "internalType": "uint256",
          "name": "",
          "type": "uint256"
        }
      ],
      "stateMutability": "view",
      "type": "function"
    },
    {
      "inputs": [
        {
          "internalType": "uint256",
          "name": "",
          "type": "uint256"
        }
      ],
      "name": "_tokenIdToContract",
      "outputs": [
        {
          "internalType": "address",
          "name": "",
          "type": "address"
        }
      ],
      "stateMutability": "view",
      "type": "function"
    },
    {
      "inputs": [
        {
          "internalType": "uint256",
          "name": "",
          "type": "uint256"
        }
      ],
      "name": "_tokenIdToOriTokenId",
      "outputs": [
        {
          "internalType": "uint256",
          "name": "",
          "type": "uint256"
        }
      ],
      "stateMutability": "view",
      "type": "function"
    },
    {
      "inputs": [
        {
          "internalType": "address",
          "name": "to",
          "type": "address"
        },
        {
          "internalType": "uint256",
          "name": "tokenId",
          "type": "uint256"
        }
      ],
      "name": "approve",
      "outputs": [],
      "stateMutability": "nonpayable",
      "type": "function"
    },
    {
      "inputs": [
        {
          "internalType": "address",
          "name": "owner",
          "type": "address"
        }
      ],
      "name": "balanceOf",
      "outputs": [
        {
          "internalType": "uint256",
          "name": "",
          "type": "uint256"
        }
      ],
      "stateMutability": "view",
      "type": "function"
    },
    {
      "inputs": [
        {
          "internalType": "uint256",
          "name": "tokenId",
          "type": "uint256"
        }
      ],
      "name": "exists",
      "outputs": [
        {
          "internalType": "bool",
          "name": "",
          "type": "bool"
        }
      ],
      "stateMutability": "view",
      "type": "function"
    },
    {
      "inputs": [
        {
          "internalType": "uint256",
          "name": "tokenId",
          "type": "uint256"
        }
      ],
      "name": "getApproved",
      "outputs": [
        {
          "internalType": "address",
          "name": "",
          "type": "address"
        }
      ],
      "stateMutability": "view",
      "type": "function"
    },
    {
      "inputs": [
        {
          "internalType": "address",
          "name": "contractAddr",
          "type": "address"
        },
        {
          "internalType": "uint256",
          "name": "tokenId",
          "type": "uint256"
        }
      ],
      "name": "getTokenId",
      "outputs": [
        {
          "internalType": "uint256",
          "name": "",
          "type": "uint256"
        }
      ],
      "stateMutability": "view",
      "type": "function"
    },
    {
      "inputs": [
        {
          "internalType": "address",
          "name": "owner",
          "type": "address"
        },
        {
          "internalType": "address",
          "name": "operator",
          "type": "address"
        }
      ],
      "name": "isApprovedForAll",
      "outputs": [
        {
          "internalType": "bool",
          "name": "",
          "type": "bool"
        }
      ],
      "stateMutability": "view",
      "type": "function"
    },
    {
      "inputs": [
        {
          "internalType": "address",
          "name": "to",
          "type": "address"
        },
        {
          "internalType": "address",
          "name": "contractAddr",
          "type": "address"
        },
        {
          "internalType": "uint256",
          "name": "tokenId",
          "type": "uint256"
        }
      ],
      "name": "mint",
      "outputs": [
        {
          "internalType": "uint256",
          "name": "",
          "type": "uint256"
        }
      ],
      "stateMutability": "payable",
      "type": "function"
    },
    {
      "inputs": [],
      "name": "name",
      "outputs": [
        {
          "internalType": "string",
          "name": "",
          "type": "string"
        }
      ],
      "stateMutability": "view",
      "type": "function"
    },
    {
      "inputs": [],
      "name": "owner",
      "outputs": [
        {
          "internalType": "address",
          "name": "",
          "type": "address"
        }
      ],
      "stateMutability": "view",
      "type": "function"
    },
    {
      "inputs": [
        {
          "internalType": "uint256",
          "name": "tokenId",
          "type": "uint256"
        }
      ],
      "name": "ownerOf",
      "outputs": [
        {
          "internalType": "address",
          "name": "",
          "type": "address"
        }
      ],
      "stateMutability": "view",
      "type": "function"
    },
    {
      "inputs": [],
      "name": "pause",
      "outputs": [],
      "stateMutability": "nonpayable",
      "type": "function"
    },
    {
      "inputs": [],
      "name": "paused",
      "outputs": [
        {
          "internalType": "bool",
          "name": "",
          "type": "bool"
        }
      ],
      "stateMutability": "view",
      "type": "function"
    },
    {
      "inputs": [
        {
          "internalType": "uint256",
          "name": "tokenId",
          "type": "uint256"
        }
      ],
      "name": "refund",
      "outputs": [],
      "stateMutability": "nonpayable",
      "type": "function"
    },
    {
      "inputs": [],
      "name": "renounceOwnership",
      "outputs": [],
      "stateMutability": "nonpayable",
      "type": "function"
    },
    {
      "inputs": [
        {
          "internalType": "address",
          "name": "from",
          "type": "address"
        },
        {
          "internalType": "address",
          "name": "to",
          "type": "address"
        },
        {
          "internalType": "uint256",
          "name": "tokenId",
          "type": "uint256"
        }
      ],
      "name": "safeTransferFrom",
      "outputs": [],
      "stateMutability": "nonpayable",
      "type": "function"
    },
    {
      "inputs": [
        {
          "internalType": "address",
          "name": "from",
          "type": "address"
        },
        {
          "internalType": "address",
          "name": "to",
          "type": "address"
        },
        {
          "internalType": "uint256",
          "name": "tokenId",
          "type": "uint256"
        },
        {
          "internalType": "bytes",
          "name": "_data",
          "type": "bytes"
        }
      ],
      "name": "safeTransferFrom",
      "outputs": [],
      "stateMutability": "nonpayable",
      "type": "function"
    },
    {
      "inputs": [
        {
          "internalType": "address",
          "name": "operator",
          "type": "address"
        },
        {
          "internalType": "bool",
          "name": "approved",
          "type": "bool"
        }
      ],
      "name": "setApprovalForAll",
      "outputs": [],
      "stateMutability": "nonpayable",
      "type": "function"
    },
    {
      "inputs": [
        {
          "internalType": "bytes4",
          "name": "interfaceId",
          "type": "bytes4"
        }
      ],
      "name": "supportsInterface",
      "outputs": [
        {
          "internalType": "bool",
          "name": "",
          "type": "bool"
        }
      ],
      "stateMutability": "view",
      "type": "function"
    },
    {
      "inputs": [],
      "name": "symbol",
      "outputs": [
        {
          "internalType": "string",
          "name": "",
          "type": "string"
        }
      ],
      "stateMutability": "view",
      "type": "function"
    },
    {
      "inputs": [
        {
          "internalType": "uint256",
          "name": "tokenId",
          "type": "uint256"
        }
      ],
      "name": "tokenURI",
      "outputs": [
        {
          "internalType": "string",
          "name": "",
          "type": "string"
        }
      ],
      "stateMutability": "view",
      "type": "function"
    },
    {
      "inputs": [],
      "name": "totalSupply",
      "outputs": [
        {
          "internalType": "uint256",
          "name": "",
          "type": "uint256"
        }
      ],
      "stateMutability": "view",
      "type": "function"
    },
    {
      "inputs": [
        {
          "internalType": "address",
          "name": "from",
          "type": "address"
        },
        {
          "internalType": "address",
          "name": "to",
          "type": "address"
        },
        {
          "internalType": "uint256",
          "name": "tokenId",
          "type": "uint256"
        }
      ],
      "name": "transferFrom",
      "outputs": [],
      "stateMutability": "nonpayable",
      "type": "function"
    },
    {
      "inputs": [
        {
          "internalType": "address",
          "name": "newOwner",
          "type": "address"
        }
      ],
      "name": "transferOwnership",
      "outputs": [],
      "stateMutability": "nonpayable",
      "type": "function"
    },
    {
      "inputs": [],
      "name": "unpause",
      "outputs": [],
      "stateMutability": "nonpayable",
      "type": "function"
    }
  ],
  "bytecode": {
    "object": "0x60806040523480156200001157600080fd5b506040516200216838038062002168833981016040819052620000349162000255565b8151829082906200004d906002906020850190620000e2565b50805162000063906003906020840190620000e2565b506001600055505060016008556200007b3362000090565b50506009805460ff60a01b19169055620002fc565b600980546001600160a01b038381166001600160a01b0319831681179093556040519116919082907f8be0079c531659141344cd1fd0a4f28419497f9722a3daafe3b4186f6b6457e090600090a35050565b828054620000f090620002bf565b90600052602060002090601f0160209004810192826200011457600085556200015f565b82601f106200012f57805160ff19168380011785556200015f565b828001600101855582156200015f579182015b828111156200015f57825182559160200191906001019062000142565b506200016d92915062000171565b5090565b5b808211156200016d576000815560010162000172565b634e487b7160e01b600052604160045260246000fd5b600082601f830112620001b057600080fd5b81516001600160401b0380821115620001cd57620001cd62000188565b604051601f8301601f19908116603f01168101908282118183101715620001f857620001f862000188565b816040528381526020925086838588010111156200021557600080fd5b600091505b838210156200023957858201830151818301840152908201906200021a565b838211156200024b5760008385830101525b9695505050505050565b600080604083850312156200026957600080fd5b82516001600160401b03808211156200028157600080fd5b6200028f868387016200019e565b93506020850151915080821115620002a657600080fd5b50620002b5858286016200019e565b9150509250929050565b600181811c90821680620002d457607f821691505b60208210811415620002f657634e487b7160e01b600052602260045260246000fd5b50919050565b611e5c806200030c6000396000f3fe60806040526004361061019c5760003560e01c80636352211e116100ec578063b44963371161008a578063c87b56dd11610064578063c87b56dd146104ba578063db4892e3146104da578063e985e9c514610510578063f2fde38b1461055957600080fd5b8063b44963371461045a578063b88d4fde14610487578063c6c3bbe6146104a757600080fd5b80638456cb59116100c65780638456cb59146103f25780638da5cb5b1461040757806395d89b4114610425578063a22cb4651461043a57600080fd5b80636352211e1461039d57806370a08231146103bd578063715018a6146103dd57600080fd5b8063278ecde1116101595780633f4ba83a116101335780633f4ba83a1461032957806342842e0e1461033e5780634f558e791461035e5780635c975abb1461037e57600080fd5b8063278ecde11461029957806329f99b9f146102b9578063388ba90a146102fc57600080fd5b806301ffc9a7146101a157806306fdde03146101d6578063081812fc146101f8578063095ea7b31461023057806318160ddd1461025257806323b872dd14610279575b600080fd5b3480156101ad57600080fd5b506101c16101bc3660046119d2565b610579565b60405190151581526020015b60405180910390f35b3480156101e257600080fd5b506101eb6105cb565b6040516101cd9190611a47565b34801561020457600080fd5b50610218610213366004611a5a565b61065d565b6040516001600160a01b0390911681526020016101cd565b34801561023c57600080fd5b5061025061024b366004611a8f565b6106a1565b005b34801561025e57600080fd5b5060015460005403600019015b6040519081526020016101cd565b34801561028557600080fd5b50610250610294366004611ab9565b61072f565b3480156102a557600080fd5b506102506102b4366004611a5a565b61073a565b3480156102c557600080fd5b5061026b6102d4366004611a8f565b6001600160a01b03919091166000908152600c60209081526040808320938352929052205490565b34801561030857600080fd5b5061026b610317366004611a5a565b600b6020526000908152604090205481565b34801561033557600080fd5b50610250610947565b34801561034a57600080fd5b50610250610359366004611ab9565b61097b565b34801561036a57600080fd5b506101c1610379366004611a5a565b610996565b34801561038a57600080fd5b50600954600160a01b900460ff166101c1565b3480156103a957600080fd5b506102186103b8366004611a5a565b6109a1565b3480156103c957600080fd5b5061026b6103d8366004611af5565b6109b3565b3480156103e957600080fd5b50610250610a02565b3480156103fe57600080fd5b50610250610a36565b34801561041357600080fd5b506009546001600160a01b0316610218565b34801561043157600080fd5b506101eb610a68565b34801561044657600080fd5b50610250610455366004611b1e565b610a77565b34801561046657600080fd5b5061026b610475366004611a5a565b600d6020526000908152604090205481565b34801561049357600080fd5b506102506104a2366004611bc4565b610b0d565b61026b6104b5366004611ab9565b610b5e565b3480156104c657600080fd5b506101eb6104d5366004611a5a565b610d10565b3480156104e657600080fd5b506102186104f5366004611a5a565b600a602052600090815260409020546001600160a01b031681565b34801561051c57600080fd5b506101c161052b366004611c6f565b6001600160a01b03918216600090815260076020908152604080832093909416825291909152205460ff1690565b34801561056557600080fd5b50610250610574366004611af5565b610f98565b60006001600160e01b031982166380ac58cd60e01b14806105aa57506001600160e01b03198216635b5e139f60e01b145b806105c557506301ffc9a760e01b6001600160e01b03198316145b92915050565b6060600280546105da90611ca2565b80601f016020809104026020016040519081016040528092919081815260200182805461060690611ca2565b80156106535780601f1061062857610100808354040283529160200191610653565b820191906000526020600020905b81548152906001019060200180831161063657829003601f168201915b5050505050905090565b600061066882611033565b610685576040516333d1c03960e21b815260040160405180910390fd5b506000908152600660205260409020546001600160a01b031690565b60006106ac826109a1565b9050806001600160a01b0316836001600160a01b031614156106e15760405163250fdee360e21b815260040160405180910390fd5b336001600160a01b0382161480159061070157506106ff813361052b565b155b1561071f576040516367d9dca160e11b815260040160405180910390fd5b61072a83838361106c565b505050565b61072a8383836110c8565b600260085414156107925760405162461bcd60e51b815260206004820152601f60248201527f5265656e7472616e637947756172643a207265656e7472616e742063616c6c0060448201526064015b60405180910390fd5b60026008556107a081611033565b6107ff5760405162461bcd60e51b815260206004820152602a60248201527f53796e7468657469634e46543a20726566756e6420666f72206e6f6e657869736044820152693a32b73a103a37b5b2b760b11b6064820152608401610789565b33610809826109a1565b6001600160a01b03161461085f5760405162461bcd60e51b815260206004820152601c60248201527f53796e7468657469634e46543a206d757374206f776e20746f6b656e000000006044820152606401610789565b610868816112c4565b6000818152600d602081815260408084208054600a84528286208054600b865284882080546001600160a01b03909216808a52600c8852868a20838b52885295892089905589895282546001600160a01b0319169092559087905594909352939093559190821561090257604051339084156108fc029085906000818181858888f19350505050158015610900573d6000803e3d6000fd5b505b837f5eee8032448a7f1556f67b8a76a4dcfd75ff98c05198df9f420467d0a1234e388460405161093491815260200190565b60405180910390a2505060016008555050565b6009546001600160a01b031633146109715760405162461bcd60e51b815260040161078990611cdd565b6109796112cf565b565b61072a83838360405180602001604052806000815250610b0d565b60006105c582611033565b60006109ac8261136c565b5192915050565b60006001600160a01b0382166109dc576040516323d3ad8160e21b815260040160405180910390fd5b506001600160a01b031660009081526005602052604090205467ffffffffffffffff1690565b6009546001600160a01b03163314610a2c5760405162461bcd60e51b815260040161078990611cdd565b6109796000611495565b6009546001600160a01b03163314610a605760405162461bcd60e51b815260040161078990611cdd565b6109796114e7565b6060600380546105da90611ca2565b6001600160a01b038216331415610aa15760405163b06307db60e01b815260040160405180910390fd5b3360008181526007602090815260408083206001600160a01b03871680855290835292819020805460ff191686151590811790915590519081529192917f17307eab39ab6107e8899845ad3d59bd9653f200f220920489ca2b5937696c31910160405180910390a35050565b610b188484846110c8565b6001600160a01b0383163b15158015610b3a5750610b388484848461156f565b155b15610b58576040516368d2bf6b60e11b815260040160405180910390fd5b50505050565b600060026008541415610bb35760405162461bcd60e51b815260206004820152601f60248201527f5265656e7472616e637947756172643a207265656e7472616e742063616c6c006044820152606401610789565b60026008556001600160a01b0383166000908152600c6020908152604080832085845290915290205415610c295760405162461bcd60e51b815260206004820152601c60248201527f53796e7468657469634e46543a20616c7265616479206d696e746564000000006044820152606401610789565b600080546001600160a01b038516808352600c602090815260408085208786528252808520849055838552600a825280852080546001600160a01b031916909317909255600b90529091208390553415610ca1576000818152600d602052604081208054349290610c9b908490611d12565b90915550505b610cac856001611657565b82846001600160a01b0316866001600160a01b03167f458f5fa412d0f69b08dd84872b0215675cc67bc1d5b6fd93300a1c3878b861968434604051610cfb929190918252602082015260400190565b60405180910390a46001600855949350505050565b6060610d1b82611033565b610d7d5760405162461bcd60e51b815260206004820152602d60248201527f53796e7468657469634e46543a2055524920717565727920666f72206e6f6e6560448201526c3c34b9ba32b73a103a37b5b2b760991b6064820152608401610789565b6000828152600a6020526040908190205490516301ffc9a760e01b8152636cdb3d1360e11b60048201526001600160a01b039091169081906301ffc9a790602401602060405180830381865afa158015610ddb573d6000803e3d6000fd5b505050506040513d601f19601f82011682018060405250810190610dff9190611d38565b15610e94576000838152600a6020908152604080832054600b909252918290205491516303a24d0760e21b815260048101929092526001600160a01b031690630e89341c906024015b600060405180830381865afa158015610e65573d6000803e3d6000fd5b505050506040513d6000823e601f3d908101601f19168201604052610e8d9190810190611d55565b9392505050565b6040516301ffc9a760e01b81526380ac58cd60e01b60048201526001600160a01b038216906301ffc9a790602401602060405180830381865afa158015610edf573d6000803e3d6000fd5b505050506040513d601f19601f82011682018060405250810190610f039190611d38565b15610f50576000838152600a6020908152604080832054600b9092529182902054915163c87b56dd60e01b815260048101929092526001600160a01b03169063c87b56dd90602401610e48565b60405162461bcd60e51b815260206004820152601e60248201527f6f6e6c7920737570706f727420373231206f72203131353520746f6b656e00006044820152606401610789565b6009546001600160a01b03163314610fc25760405162461bcd60e51b815260040161078990611cdd565b6001600160a01b0381166110275760405162461bcd60e51b815260206004820152602660248201527f4f776e61626c653a206e6577206f776e657220697320746865207a65726f206160448201526564647265737360d01b6064820152608401610789565b61103081611495565b50565b600081600111158015611047575060005482105b80156105c5575050600090815260046020526040902054600160e01b900460ff161590565b60008281526006602052604080822080546001600160a01b0319166001600160a01b0387811691821790925591518593918516917f8c5be1e5ebec7d5bd14f71427d1e84f3dd0314c0f7b2291e5b200ac8c7c3b92591a4505050565b60006110d38261136c565b9050836001600160a01b031681600001516001600160a01b03161461110a5760405162a1148160e81b815260040160405180910390fd5b6000336001600160a01b03861614806111285750611128853361052b565b806111435750336111388461065d565b6001600160a01b0316145b90508061116357604051632ce44b5f60e11b815260040160405180910390fd5b6001600160a01b03841661118a57604051633a954ecd60e21b815260040160405180910390fd5b6111978585856001611795565b6111a36000848761106c565b6001600160a01b038581166000908152600560209081526040808320805467ffffffffffffffff1980821667ffffffffffffffff92831660001901831617909255898616808652838620805493841693831660019081018416949094179055898652600490945282852080546001600160e01b031916909417600160a01b42909216919091021783558701808452922080549193909116611279576000548214611279578054602086015167ffffffffffffffff16600160a01b026001600160e01b03199091166001600160a01b038a16171781555b50505082846001600160a01b0316866001600160a01b03167fddf252ad1be2c89b69c2b068fc378daa952ba7f163c4a11628f55a4df523b3ef60405160405180910390a45050505050565b6110308160006117e7565b600954600160a01b900460ff1661131f5760405162461bcd60e51b815260206004820152601460248201527314185d5cd8589b194e881b9bdd081c185d5cd95960621b6044820152606401610789565b6009805460ff60a01b191690557f5db9ee0a495bf2e6ff9c91a7834c1ba4fdd244a5e8aa4e537bd38aeae4b073aa335b6040516001600160a01b03909116815260200160405180910390a1565b6040805160608101825260008082526020820181905291810191909152818060011115801561139c575060005481105b1561147c57600081815260046020908152604091829020825160608101845290546001600160a01b0381168252600160a01b810467ffffffffffffffff1692820192909252600160e01b90910460ff1615159181018290529061147a5780516001600160a01b031615611410579392505050565b5060001901600081815260046020908152604091829020825160608101845290546001600160a01b038116808352600160a01b820467ffffffffffffffff1693830193909352600160e01b900460ff1615159281019290925215611475579392505050565b611410565b505b604051636f96cda160e11b815260040160405180910390fd5b600980546001600160a01b038381166001600160a01b0319831681179093556040519116919082907f8be0079c531659141344cd1fd0a4f28419497f9722a3daafe3b4186f6b6457e090600090a35050565b600954600160a01b900460ff16156115345760405162461bcd60e51b815260206004820152601060248201526f14185d5cd8589b194e881c185d5cd95960821b6044820152606401610789565b6009805460ff60a01b1916600160a01b1790557f62e78cea01bee320cd4e420270b5ea74000d11b0c9f74754ebdbfc544b05a25861134f3390565b604051630a85bd0160e11b81526000906001600160a01b0385169063150b7a02906115a4903390899088908890600401611dcc565b6020604051808303816000875af19250505080156115df575060408051601f3d908101601f191682019092526115dc91810190611e09565b60015b61163a573d80801561160d576040519150601f19603f3d011682016040523d82523d6000602084013e611612565b606091505b508051611632576040516368d2bf6b60e11b815260040160405180910390fd5b805181602001fd5b6001600160e01b031916630a85bd0160e11b149050949350505050565b6000546001600160a01b03831661168057604051622e076360e81b815260040160405180910390fd5b8161169e5760405163b562e8dd60e01b815260040160405180910390fd5b6116ab6000848385611795565b6001600160a01b038316600081815260056020908152604080832080546fffffffffffffffffffffffffffffffff19811667ffffffffffffffff8083168a0181169182176801000000000000000067ffffffffffffffff1990941690921783900481168a01811690920217909155858452600490925290912080546001600160e01b031916909217600160a01b4290921691909102179055808083015b6040516001830192906001600160a01b038716906000907fddf252ad1be2c89b69c2b068fc378daa952ba7f163c4a11628f55a4df523b3ef908290a4808214156117485750600055505050565b600954600160a01b900460ff16156117e25760405162461bcd60e51b815260206004820152601060248201526f14185d5cd8589b194e881c185d5cd95960821b6044820152606401610789565b610b58565b60006117f28361136c565b80519091508215611858576000336001600160a01b038316148061181b575061181b823361052b565b8061183657503361182b8661065d565b6001600160a01b0316145b90508061185657604051632ce44b5f60e11b815260040160405180910390fd5b505b611866816000866001611795565b6118726000858361106c565b6001600160a01b0380821660008181526005602090815260408083208054600160801b60001967ffffffffffffffff80841691909101811667ffffffffffffffff198416811783900482166001908101831690930277ffffffffffffffff0000000000000000ffffffffffffffff19909416179290921783558b86526004909452828520805460ff60e01b1942909316600160a01b026001600160e01b03199091169097179690961716600160e01b178555918901808452922080549194909116611972576000548214611972578054602087015167ffffffffffffffff16600160a01b026001600160e01b03199091166001600160a01b038716171781555b5050604051869250600091506001600160a01b038416907fddf252ad1be2c89b69c2b068fc378daa952ba7f163c4a11628f55a4df523b3ef908390a4505060018054810190555050565b6001600160e01b03198116811461103057600080fd5b6000602082840312156119e457600080fd5b8135610e8d816119bc565b60005b83811015611a0a5781810151838201526020016119f2565b83811115610b585750506000910152565b60008151808452611a338160208601602086016119ef565b601f01601f19169290920160200192915050565b602081526000610e8d6020830184611a1b565b600060208284031215611a6c57600080fd5b5035919050565b80356001600160a01b0381168114611a8a57600080fd5b919050565b60008060408385031215611aa257600080fd5b611aab83611a73565b946020939093013593505050565b600080600060608486031215611ace57600080fd5b611ad784611a73565b9250611ae560208501611a73565b9150604084013590509250925092565b600060208284031215611b0757600080fd5b610e8d82611a73565b801515811461103057600080fd5b60008060408385031215611b3157600080fd5b611b3a83611a73565b91506020830135611b4a81611b10565b809150509250929050565b634e487b7160e01b600052604160045260246000fd5b604051601f8201601f1916810167ffffffffffffffff81118282101715611b9457611b94611b55565b604052919050565b600067ffffffffffffffff821115611bb657611bb6611b55565b50601f01601f191660200190565b60008060008060808587031215611bda57600080fd5b611be385611a73565b9350611bf160208601611a73565b925060408501359150606085013567ffffffffffffffff811115611c1457600080fd5b8501601f81018713611c2557600080fd5b8035611c38611c3382611b9c565b611b6b565b818152886020838501011115611c4d57600080fd5b8160208401602083013760006020838301015280935050505092959194509250565b60008060408385031215611c8257600080fd5b611c8b83611a73565b9150611c9960208401611a73565b90509250929050565b600181811c90821680611cb657607f821691505b60208210811415611cd757634e487b7160e01b600052602260045260246000fd5b50919050565b6020808252818101527f4f776e61626c653a2063616c6c6572206973206e6f7420746865206f776e6572604082015260600190565b60008219821115611d3357634e487b7160e01b600052601160045260246000fd5b500190565b600060208284031215611d4a57600080fd5b8151610e8d81611b10565b600060208284031215611d6757600080fd5b815167ffffffffffffffff811115611d7e57600080fd5b8201601f81018413611d8f57600080fd5b8051611d9d611c3382611b9c565b818152856020838501011115611db257600080fd5b611dc38260208301602086016119ef565b95945050505050565b6001600160a01b0385811682528416602082015260408101839052608060608201819052600090611dff90830184611a1b565b9695505050505050565b600060208284031215611e1b57600080fd5b8151610e8d816119bc56fea2646970667358221220eb340ea848afb6f6dada716193cbbfd43378080ed0db9f50fcdbf41fa0862e5264736f6c634300080a0033",
    "linkReferences": {}
  }
}