{
  "abi": [
    {
      "inputs": [
        {
          "internalType": "string",
          "name": "name",
          "type": "string"
        },
        {
          "internalType": "string",
          "name": "symbol",
          "type": "string"
        }
      ],
      "stateMutability": "nonpayable",
      "type": "constructor"
    },
    {
      "inputs": [],
      "name": "ApprovalCallerNotOwnerNorApproved",
      "type": "error"
    },
    {
      "inputs": [],
      "name": "ApprovalQueryForNonexistentToken",
      "type": "error"
    },
    {
      "inputs": [],
      "name": "ApprovalToCurrentOwner",
      "type": "error"
    },
    {
      "inputs": [],
      "name": "ApproveToCaller",
      "type": "error"
    },
    {
      "inputs": [],
      "name": "BalanceQueryForZeroAddress",
      "type": "error"
    },
    {
      "inputs": [],
      "name": "MintToZeroAddress",
      "type": "error"
    },
    {
      "inputs": [],
      "name": "MintZeroQuantity",
      "type": "error"
    },
    {
      "inputs": [],
      "name": "OwnerQueryForNonexistentToken",
      "type": "error"
    },
    {
      "inputs": [],
      "name": "TransferCallerNotOwnerNorApproved",
      "type": "error"
    },
    {
      "inputs": [],
      "name": "TransferFromIncorrectOwner",
      "type": "error"
    },
    {
      "inputs": [],
      "name": "TransferToNonERC721ReceiverImplementer",
      "type": "error"
    },
    {
      "inputs": [],
      "name": "TransferToZeroAddress",
      "type": "error"
    },
    {
      "anonymous": false,
      "inputs": [
        {
          "indexed": true,
          "internalType": "address",
          "name": "owner",
          "type": "address"
        },
        {
          "indexed": true,
          "internalType": "address",
          "name": "approved",
          "type": "address"
        },
        {
          "indexed": true,
          "internalType": "uint256",
          "name": "tokenId",
          "type": "uint256"
        }
      ],
      "name": "Approval",
      "type": "event"
    },
    {
      "anonymous": false,
      "inputs": [
        {
          "indexed": true,
          "internalType": "address",
          "name": "owner",
          "type": "address"
        },
        {
          "indexed": true,
          "internalType": "address",
          "name": "operator",
          "type": "address"
        },
        {
          "indexed": false,
          "internalType": "bool",
          "name": "approved",
          "type": "bool"
        }
      ],
      "name": "ApprovalForAll",
      "type": "event"
    },
    {
      "anonymous": false,
      "inputs": [
        {
          "indexed": true,
          "internalType": "address",
          "name": "to",
          "type": "address"
        },
        {
          "indexed": true,
          "internalType": "address",
          "name": "contractAdddr",
          "type": "address"
        },
        {
          "indexed": true,
          "internalType": "uint256",
          "name": "tokenId",
          "type": "uint256"
        },
        {
          "indexed": false,
          "internalType": "uint256",
          "name": "newTokenId",
          "type": "uint256"
        },
        {
          "indexed": false,
          "internalType": "uint256",
          "name": "amount",
          "type": "uint256"
        }
      ],
      "name": "Mint",
      "type": "event"
    },
    {
      "anonymous": false,
      "inputs": [
        {
          "indexed": true,
          "internalType": "address",
          "name": "previousOwner",
          "type": "address"
        },
        {
          "indexed": true,
          "internalType": "address",
          "name": "newOwner",
          "type": "address"
        }
      ],
      "name": "OwnershipTransferred",
      "type": "event"
    },
    {
      "anonymous": false,
      "inputs": [
        {
          "indexed": false,
          "internalType": "address",
          "name": "account",
          "type": "address"
        }
      ],
      "name": "Paused",
      "type": "event"
    },
    {
      "anonymous": false,
      "inputs": [
        {
          "indexed": true,
          "internalType": "uint256",
          "name": "tokenId",
          "type": "uint256"
        },
        {
          "indexed": false,
          "internalType": "uint256",
          "name": "amount",
          "type": "uint256"
        }
      ],
      "name": "Refund",
      "type": "event"
    },
    {
      "anonymous": false,
      "inputs": [
        {
          "indexed": true,
          "internalType": "address",
          "name": "from",
          "type": "address"
        },
        {
          "indexed": true,
          "internalType": "address",
          "name": "to",
          "type": "address"
        },
        {
          "indexed": true,
          "internalType": "uint256",
          "name": "tokenId",
          "type": "uint256"
        }
      ],
      "name": "Transfer",
      "type": "event"
    },
    {
      "anonymous": false,
      "inputs": [
        {
          "indexed": false,
          "internalType": "address",
          "name": "account",
          "type": "address"
        }
      ],
      "name": "Unpaused",
      "type": "event"
    },
    {
      "inputs": [
        {
          "internalType": "uint256",
          "name": "",
          "type": "uint256"
        }
      ],
      "name": "_etherBalances",
      "outputs": [
        {
          "internalType": "uint256",
          "name": "",
          "type": "uint256"
        }
      ],
      "stateMutability": "view",
      "type": "function"
    },
    {
      "inputs": [
        {
          "internalType": "uint256",
          "name": "",
          "type": "uint256"
        }
      ],
      "name": "_tokenIdToContract",
      "outputs": [
        {
          "internalType": "address",
          "name": "",
          "type": "address"
        }
      ],
      "stateMutability": "view",
      "type": "function"
    },
    {
      "inputs": [
        {
          "internalType": "uint256",
          "name": "",
          "type": "uint256"
        }
      ],
      "name": "_tokenIdToOriTokenId",
      "outputs": [
        {
          "internalType": "uint256",
          "name": "",
          "type": "uint256"
        }
      ],
      "stateMutability": "view",
      "type": "function"
    },
    {
      "inputs": [
        {
          "internalType": "address",
          "name": "to",
          "type": "address"
        },
        {
          "internalType": "uint256",
          "name": "tokenId",
          "type": "uint256"
        }
      ],
      "name": "approve",
      "outputs": [],
      "stateMutability": "nonpayable",
      "type": "function"
    },
    {
      "inputs": [
        {
          "internalType": "address",
          "name": "owner",
          "type": "address"
        }
      ],
      "name": "balanceOf",
      "outputs": [
        {
          "internalType": "uint256",
          "name": "",
          "type": "uint256"
        }
      ],
      "stateMutability": "view",
      "type": "function"
    },
    {
      "inputs": [],
      "name": "calcMintPrice",
      "outputs": [
        {
          "internalType": "uint256",
          "name": "",
          "type": "uint256"
        }
      ],
      "stateMutability": "view",
      "type": "function"
    },
    {
      "inputs": [
        {
          "internalType": "uint256",
          "name": "tokenId",
          "type": "uint256"
        }
      ],
      "name": "exists",
      "outputs": [
        {
          "internalType": "bool",
          "name": "",
          "type": "bool"
        }
      ],
      "stateMutability": "view",
      "type": "function"
    },
    {
      "inputs": [
        {
          "internalType": "uint256",
          "name": "tokenId",
          "type": "uint256"
        }
      ],
      "name": "getApproved",
      "outputs": [
        {
          "internalType": "address",
          "name": "",
          "type": "address"
        }
      ],
      "stateMutability": "view",
      "type": "function"
    },
    {
      "inputs": [
        {
          "internalType": "address",
          "name": "contractAddr",
          "type": "address"
        },
        {
          "internalType": "uint256",
          "name": "tokenId",
          "type": "uint256"
        }
      ],
      "name": "getTokenId",
      "outputs": [
        {
          "internalType": "uint256",
          "name": "",
          "type": "uint256"
        }
      ],
      "stateMutability": "view",
      "type": "function"
    },
    {
      "inputs": [
        {
          "internalType": "address",
          "name": "owner",
          "type": "address"
        },
        {
          "internalType": "address",
          "name": "operator",
          "type": "address"
        }
      ],
      "name": "isApprovedForAll",
      "outputs": [
        {
          "internalType": "bool",
          "name": "",
          "type": "bool"
        }
      ],
      "stateMutability": "view",
      "type": "function"
    },
    {
      "inputs": [
        {
          "internalType": "address",
          "name": "to",
          "type": "address"
        },
        {
          "internalType": "address",
          "name": "contractAddr",
          "type": "address"
        },
        {
          "internalType": "uint256",
          "name": "tokenId",
          "type": "uint256"
        }
      ],
      "name": "mint",
      "outputs": [
        {
          "internalType": "uint256",
          "name": "",
          "type": "uint256"
        }
      ],
      "stateMutability": "payable",
      "type": "function"
    },
    {
      "inputs": [],
      "name": "name",
      "outputs": [
        {
          "internalType": "string",
          "name": "",
          "type": "string"
        }
      ],
      "stateMutability": "view",
      "type": "function"
    },
    {
      "inputs": [],
      "name": "owner",
      "outputs": [
        {
          "internalType": "address",
          "name": "",
          "type": "address"
        }
      ],
      "stateMutability": "view",
      "type": "function"
    },
    {
      "inputs": [
        {
          "internalType": "uint256",
          "name": "tokenId",
          "type": "uint256"
        }
      ],
      "name": "ownerOf",
      "outputs": [
        {
          "internalType": "address",
          "name": "",
          "type": "address"
        }
      ],
      "stateMutability": "view",
      "type": "function"
    },
    {
      "inputs": [],
      "name": "pause",
      "outputs": [],
      "stateMutability": "nonpayable",
      "type": "function"
    },
    {
      "inputs": [],
      "name": "paused",
      "outputs": [
        {
          "internalType": "bool",
          "name": "",
          "type": "bool"
        }
      ],
      "stateMutability": "view",
      "type": "function"
    },
    {
      "inputs": [
        {
          "internalType": "uint256",
          "name": "tokenId",
          "type": "uint256"
        }
      ],
      "name": "refund",
      "outputs": [],
      "stateMutability": "nonpayable",
      "type": "function"
    },
    {
      "inputs": [],
      "name": "renounceOwnership",
      "outputs": [],
      "stateMutability": "nonpayable",
      "type": "function"
    },
    {
      "inputs": [
        {
          "internalType": "address",
          "name": "from",
          "type": "address"
        },
        {
          "internalType": "address",
          "name": "to",
          "type": "address"
        },
        {
          "internalType": "uint256",
          "name": "tokenId",
          "type": "uint256"
        }
      ],
      "name": "safeTransferFrom",
      "outputs": [],
      "stateMutability": "nonpayable",
      "type": "function"
    },
    {
      "inputs": [
        {
          "internalType": "address",
          "name": "from",
          "type": "address"
        },
        {
          "internalType": "address",
          "name": "to",
          "type": "address"
        },
        {
          "internalType": "uint256",
          "name": "tokenId",
          "type": "uint256"
        },
        {
          "internalType": "bytes",
          "name": "_data",
          "type": "bytes"
        }
      ],
      "name": "safeTransferFrom",
      "outputs": [],
      "stateMutability": "nonpayable",
      "type": "function"
    },
    {
      "inputs": [
        {
          "internalType": "address",
          "name": "operator",
          "type": "address"
        },
        {
          "internalType": "bool",
          "name": "approved",
          "type": "bool"
        }
      ],
      "name": "setApprovalForAll",
      "outputs": [],
      "stateMutability": "nonpayable",
      "type": "function"
    },
    {
      "inputs": [
        {
          "internalType": "bytes4",
          "name": "interfaceId",
          "type": "bytes4"
        }
      ],
      "name": "supportsInterface",
      "outputs": [
        {
          "internalType": "bool",
          "name": "",
          "type": "bool"
        }
      ],
      "stateMutability": "view",
      "type": "function"
    },
    {
      "inputs": [],
      "name": "symbol",
      "outputs": [
        {
          "internalType": "string",
          "name": "",
          "type": "string"
        }
      ],
      "stateMutability": "view",
      "type": "function"
    },
    {
      "inputs": [
        {
          "internalType": "uint256",
          "name": "tokenId",
          "type": "uint256"
        }
      ],
      "name": "tokenURI",
      "outputs": [
        {
          "internalType": "string",
          "name": "",
          "type": "string"
        }
      ],
      "stateMutability": "view",
      "type": "function"
    },
    {
      "inputs": [],
      "name": "totalSupply",
      "outputs": [
        {
          "internalType": "uint256",
          "name": "",
          "type": "uint256"
        }
      ],
      "stateMutability": "view",
      "type": "function"
    },
    {
      "inputs": [
        {
          "internalType": "address",
          "name": "from",
          "type": "address"
        },
        {
          "internalType": "address",
          "name": "to",
          "type": "address"
        },
        {
          "internalType": "uint256",
          "name": "tokenId",
          "type": "uint256"
        }
      ],
      "name": "transferFrom",
      "outputs": [],
      "stateMutability": "nonpayable",
      "type": "function"
    },
    {
      "inputs": [
        {
          "internalType": "address",
          "name": "newOwner",
          "type": "address"
        }
      ],
      "name": "transferOwnership",
      "outputs": [],
      "stateMutability": "nonpayable",
      "type": "function"
    },
    {
      "inputs": [],
      "name": "unpause",
      "outputs": [],
      "stateMutability": "nonpayable",
      "type": "function"
    }
  ],
  "bytecode": {
    "object": "0x60806040523480156200001157600080fd5b506040516200226a3803806200226a833981016040819052620000349162000255565b8151829082906200004d906002906020850190620000e2565b50805162000063906003906020840190620000e2565b506001600055505060016008556200007b3362000090565b50506009805460ff60a01b19169055620002fc565b600980546001600160a01b038381166001600160a01b0319831681179093556040519116919082907f8be0079c531659141344cd1fd0a4f28419497f9722a3daafe3b4186f6b6457e090600090a35050565b828054620000f090620002bf565b90600052602060002090601f0160209004810192826200011457600085556200015f565b82601f106200012f57805160ff19168380011785556200015f565b828001600101855582156200015f579182015b828111156200015f57825182559160200191906001019062000142565b506200016d92915062000171565b5090565b5b808211156200016d576000815560010162000172565b634e487b7160e01b600052604160045260246000fd5b600082601f830112620001b057600080fd5b81516001600160401b0380821115620001cd57620001cd62000188565b604051601f8301601f19908116603f01168101908282118183101715620001f857620001f862000188565b816040528381526020925086838588010111156200021557600080fd5b600091505b838210156200023957858201830151818301840152908201906200021a565b838211156200024b5760008385830101525b9695505050505050565b600080604083850312156200026957600080fd5b82516001600160401b03808211156200028157600080fd5b6200028f868387016200019e565b93506020850151915080821115620002a657600080fd5b50620002b5858286016200019e565b9150509250929050565b600181811c90821680620002d457607f821691505b60208210811415620002f657634e487b7160e01b600052602260045260246000fd5b50919050565b611f5e806200030c6000396000f3fe6080604052600436106101b75760003560e01c806370a08231116100ec578063b44963371161008a578063c87b56dd11610064578063c87b56dd146104ea578063db4892e31461050a578063e985e9c514610540578063f2fde38b1461058957600080fd5b8063b44963371461048a578063b88d4fde146104b7578063c6c3bbe6146104d757600080fd5b80638456cb59116100c65780638456cb59146104225780638da5cb5b1461043757806395d89b4114610455578063a22cb4651461046a57600080fd5b806370a08231146103d8578063715018a6146103f857806380f7b38b1461040d57600080fd5b806329f99b9f1161015957806342842e0e1161013357806342842e0e146103595780634f558e79146103795780635c975abb146103995780636352211e146103b857600080fd5b806329f99b9f146102d4578063388ba90a146103175780633f4ba83a1461034457600080fd5b8063095ea7b311610195578063095ea7b31461024b57806318160ddd1461026d57806323b872dd14610294578063278ecde1146102b457600080fd5b806301ffc9a7146101bc57806306fdde03146101f1578063081812fc14610213575b600080fd5b3480156101c857600080fd5b506101dc6101d7366004611aad565b6105a9565b60405190151581526020015b60405180910390f35b3480156101fd57600080fd5b506102066105fb565b6040516101e89190611b22565b34801561021f57600080fd5b5061023361022e366004611b35565b61068d565b6040516001600160a01b0390911681526020016101e8565b34801561025757600080fd5b5061026b610266366004611b6a565b6106d1565b005b34801561027957600080fd5b5060015460005403600019015b6040519081526020016101e8565b3480156102a057600080fd5b5061026b6102af366004611b94565b61075f565b3480156102c057600080fd5b5061026b6102cf366004611b35565b61076a565b3480156102e057600080fd5b506102866102ef366004611b6a565b6001600160a01b03919091166000908152600c60209081526040808320938352929052205490565b34801561032357600080fd5b50610286610332366004611b35565b600b6020526000908152604090205481565b34801561035057600080fd5b5061026b610977565b34801561036557600080fd5b5061026b610374366004611b94565b6109ab565b34801561038557600080fd5b506101dc610394366004611b35565b6109c6565b3480156103a557600080fd5b50600954600160a01b900460ff166101dc565b3480156103c457600080fd5b506102336103d3366004611b35565b6109d1565b3480156103e457600080fd5b506102866103f3366004611bd0565b6109e3565b34801561040457600080fd5b5061026b610a32565b34801561041957600080fd5b50610286610a66565b34801561042e57600080fd5b5061026b610ab4565b34801561044357600080fd5b506009546001600160a01b0316610233565b34801561046157600080fd5b50610206610ae6565b34801561047657600080fd5b5061026b610485366004611bf9565b610af5565b34801561049657600080fd5b506102866104a5366004611b35565b600d6020526000908152604090205481565b3480156104c357600080fd5b5061026b6104d2366004611c9f565b610b8b565b6102866104e5366004611b94565b610bdc565b3480156104f657600080fd5b50610206610505366004611b35565b610deb565b34801561051657600080fd5b50610233610525366004611b35565b600a602052600090815260409020546001600160a01b031681565b34801561054c57600080fd5b506101dc61055b366004611d4a565b6001600160a01b03918216600090815260076020908152604080832093909416825291909152205460ff1690565b34801561059557600080fd5b5061026b6105a4366004611bd0565b611073565b60006001600160e01b031982166380ac58cd60e01b14806105da57506001600160e01b03198216635b5e139f60e01b145b806105f557506301ffc9a760e01b6001600160e01b03198316145b92915050565b60606002805461060a90611d7d565b80601f016020809104026020016040519081016040528092919081815260200182805461063690611d7d565b80156106835780601f1061065857610100808354040283529160200191610683565b820191906000526020600020905b81548152906001019060200180831161066657829003601f168201915b5050505050905090565b60006106988261110e565b6106b5576040516333d1c03960e21b815260040160405180910390fd5b506000908152600660205260409020546001600160a01b031690565b60006106dc826109d1565b9050806001600160a01b0316836001600160a01b031614156107115760405163250fdee360e21b815260040160405180910390fd5b336001600160a01b03821614801590610731575061072f813361055b565b155b1561074f576040516367d9dca160e11b815260040160405180910390fd5b61075a838383611147565b505050565b61075a8383836111a3565b600260085414156107c25760405162461bcd60e51b815260206004820152601f60248201527f5265656e7472616e637947756172643a207265656e7472616e742063616c6c0060448201526064015b60405180910390fd5b60026008556107d08161110e565b61082f5760405162461bcd60e51b815260206004820152602a60248201527f53796e7468657469634e46543a20726566756e6420666f72206e6f6e657869736044820152693a32b73a103a37b5b2b760b11b60648201526084016107b9565b33610839826109d1565b6001600160a01b03161461088f5760405162461bcd60e51b815260206004820152601c60248201527f53796e7468657469634e46543a206d757374206f776e20746f6b656e0000000060448201526064016107b9565b6108988161139f565b6000818152600d602081815260408084208054600a84528286208054600b865284882080546001600160a01b03909216808a52600c8852868a20838b52885295892089905589895282546001600160a01b0319169092559087905594909352939093559190821561093257604051339084156108fc029085906000818181858888f19350505050158015610930573d6000803e3d6000fd5b505b837f5eee8032448a7f1556f67b8a76a4dcfd75ff98c05198df9f420467d0a1234e388460405161096491815260200190565b60405180910390a2505060016008555050565b6009546001600160a01b031633146109a15760405162461bcd60e51b81526004016107b990611db8565b6109a96113aa565b565b61075a83838360405180602001604052806000815250610b8b565b60006105f58261110e565b60006109dc82611447565b5192915050565b60006001600160a01b038216610a0c576040516323d3ad8160e21b815260040160405180910390fd5b506001600160a01b031660009081526005602052604090205467ffffffffffffffff1690565b6009546001600160a01b03163314610a5c5760405162461bcd60e51b81526004016107b990611db8565b6109a96000611570565b6000610a7b6001546000546000199190030190565b6001546000540360001901610a9490630bebc200611e03565b610a9e9190611e03565b610aaf9066038d7ea4c68000611e22565b905090565b6009546001600160a01b03163314610ade5760405162461bcd60e51b81526004016107b990611db8565b6109a96115c2565b60606003805461060a90611d7d565b6001600160a01b038216331415610b1f5760405163b06307db60e01b815260040160405180910390fd5b3360008181526007602090815260408083206001600160a01b03871680855290835292819020805460ff191686151590811790915590519081529192917f17307eab39ab6107e8899845ad3d59bd9653f200f220920489ca2b5937696c31910160405180910390a35050565b610b968484846111a3565b6001600160a01b0383163b15158015610bb85750610bb68484848461164a565b155b15610bd6576040516368d2bf6b60e11b815260040160405180910390fd5b50505050565b600060026008541415610c315760405162461bcd60e51b815260206004820152601f60248201527f5265656e7472616e637947756172643a207265656e7472616e742063616c6c0060448201526064016107b9565b60026008556000610c40610a66565b905080341015610c925760405162461bcd60e51b815260206004820181905260248201527f53796e7468657469634e46543a20696e73756666696369656e7420657468657260448201526064016107b9565b6001600160a01b0384166000908152600c6020908152604080832086845290915290205415610d035760405162461bcd60e51b815260206004820152601c60248201527f53796e7468657469634e46543a20616c7265616479206d696e7465640000000060448201526064016107b9565b600080546001600160a01b038616808352600c602090815260408085208886528252808520849055838552600a825280852080546001600160a01b031916909317909255600b90529091208490553415610d7b576000818152600d602052604081208054349290610d75908490611e22565b90915550505b610d86866001611732565b83856001600160a01b0316876001600160a01b03167f458f5fa412d0f69b08dd84872b0215675cc67bc1d5b6fd93300a1c3878b861968434604051610dd5929190918252602082015260400190565b60405180910390a4600160085595945050505050565b6060610df68261110e565b610e585760405162461bcd60e51b815260206004820152602d60248201527f53796e7468657469634e46543a2055524920717565727920666f72206e6f6e6560448201526c3c34b9ba32b73a103a37b5b2b760991b60648201526084016107b9565b6000828152600a6020526040908190205490516301ffc9a760e01b8152636cdb3d1360e11b60048201526001600160a01b039091169081906301ffc9a790602401602060405180830381865afa158015610eb6573d6000803e3d6000fd5b505050506040513d601f19601f82011682018060405250810190610eda9190611e3a565b15610f6f576000838152600a6020908152604080832054600b909252918290205491516303a24d0760e21b815260048101929092526001600160a01b031690630e89341c906024015b600060405180830381865afa158015610f40573d6000803e3d6000fd5b505050506040513d6000823e601f3d908101601f19168201604052610f689190810190611e57565b9392505050565b6040516301ffc9a760e01b81526380ac58cd60e01b60048201526001600160a01b038216906301ffc9a790602401602060405180830381865afa158015610fba573d6000803e3d6000fd5b505050506040513d601f19601f82011682018060405250810190610fde9190611e3a565b1561102b576000838152600a6020908152604080832054600b9092529182902054915163c87b56dd60e01b815260048101929092526001600160a01b03169063c87b56dd90602401610f23565b60405162461bcd60e51b815260206004820152601e60248201527f6f6e6c7920737570706f727420373231206f72203131353520746f6b656e000060448201526064016107b9565b6009546001600160a01b0316331461109d5760405162461bcd60e51b81526004016107b990611db8565b6001600160a01b0381166111025760405162461bcd60e51b815260206004820152602660248201527f4f776e61626c653a206e6577206f776e657220697320746865207a65726f206160448201526564647265737360d01b60648201526084016107b9565b61110b81611570565b50565b600081600111158015611122575060005482105b80156105f5575050600090815260046020526040902054600160e01b900460ff161590565b60008281526006602052604080822080546001600160a01b0319166001600160a01b0387811691821790925591518593918516917f8c5be1e5ebec7d5bd14f71427d1e84f3dd0314c0f7b2291e5b200ac8c7c3b92591a4505050565b60006111ae82611447565b9050836001600160a01b031681600001516001600160a01b0316146111e55760405162a1148160e81b815260040160405180910390fd5b6000336001600160a01b03861614806112035750611203853361055b565b8061121e5750336112138461068d565b6001600160a01b0316145b90508061123e57604051632ce44b5f60e11b815260040160405180910390fd5b6001600160a01b03841661126557604051633a954ecd60e21b815260040160405180910390fd5b6112728585856001611870565b61127e60008487611147565b6001600160a01b038581166000908152600560209081526040808320805467ffffffffffffffff1980821667ffffffffffffffff92831660001901831617909255898616808652838620805493841693831660019081018416949094179055898652600490945282852080546001600160e01b031916909417600160a01b42909216919091021783558701808452922080549193909116611354576000548214611354578054602086015167ffffffffffffffff16600160a01b026001600160e01b03199091166001600160a01b038a16171781555b50505082846001600160a01b0316866001600160a01b03167fddf252ad1be2c89b69c2b068fc378daa952ba7f163c4a11628f55a4df523b3ef60405160405180910390a45050505050565b61110b8160006118c2565b600954600160a01b900460ff166113fa5760405162461bcd60e51b815260206004820152601460248201527314185d5cd8589b194e881b9bdd081c185d5cd95960621b60448201526064016107b9565b6009805460ff60a01b191690557f5db9ee0a495bf2e6ff9c91a7834c1ba4fdd244a5e8aa4e537bd38aeae4b073aa335b6040516001600160a01b03909116815260200160405180910390a1565b60408051606081018252600080825260208201819052918101919091528180600111158015611477575060005481105b1561155757600081815260046020908152604091829020825160608101845290546001600160a01b0381168252600160a01b810467ffffffffffffffff1692820192909252600160e01b90910460ff161515918101829052906115555780516001600160a01b0316156114eb579392505050565b5060001901600081815260046020908152604091829020825160608101845290546001600160a01b038116808352600160a01b820467ffffffffffffffff1693830193909352600160e01b900460ff1615159281019290925215611550579392505050565b6114eb565b505b604051636f96cda160e11b815260040160405180910390fd5b600980546001600160a01b038381166001600160a01b0319831681179093556040519116919082907f8be0079c531659141344cd1fd0a4f28419497f9722a3daafe3b4186f6b6457e090600090a35050565b600954600160a01b900460ff161561160f5760405162461bcd60e51b815260206004820152601060248201526f14185d5cd8589b194e881c185d5cd95960821b60448201526064016107b9565b6009805460ff60a01b1916600160a01b1790557f62e78cea01bee320cd4e420270b5ea74000d11b0c9f74754ebdbfc544b05a25861142a3390565b604051630a85bd0160e11b81526000906001600160a01b0385169063150b7a029061167f903390899088908890600401611ece565b6020604051808303816000875af19250505080156116ba575060408051601f3d908101601f191682019092526116b791810190611f0b565b60015b611715573d8080156116e8576040519150601f19603f3d011682016040523d82523d6000602084013e6116ed565b606091505b50805161170d576040516368d2bf6b60e11b815260040160405180910390fd5b805181602001fd5b6001600160e01b031916630a85bd0160e11b149050949350505050565b6000546001600160a01b03831661175b57604051622e076360e81b815260040160405180910390fd5b816117795760405163b562e8dd60e01b815260040160405180910390fd5b6117866000848385611870565b6001600160a01b038316600081815260056020908152604080832080546fffffffffffffffffffffffffffffffff19811667ffffffffffffffff8083168a0181169182176801000000000000000067ffffffffffffffff1990941690921783900481168a01811690920217909155858452600490925290912080546001600160e01b031916909217600160a01b4290921691909102179055808083015b6040516001830192906001600160a01b038716906000907fddf252ad1be2c89b69c2b068fc378daa952ba7f163c4a11628f55a4df523b3ef908290a4808214156118235750600055505050565b600954600160a01b900460ff16156118bd5760405162461bcd60e51b815260206004820152601060248201526f14185d5cd8589b194e881c185d5cd95960821b60448201526064016107b9565b610bd6565b60006118cd83611447565b80519091508215611933576000336001600160a01b03831614806118f657506118f6823361055b565b806119115750336119068661068d565b6001600160a01b0316145b90508061193157604051632ce44b5f60e11b815260040160405180910390fd5b505b611941816000866001611870565b61194d60008583611147565b6001600160a01b0380821660008181526005602090815260408083208054600160801b60001967ffffffffffffffff80841691909101811667ffffffffffffffff198416811783900482166001908101831690930277ffffffffffffffff0000000000000000ffffffffffffffff19909416179290921783558b86526004909452828520805460ff60e01b1942909316600160a01b026001600160e01b03199091169097179690961716600160e01b178555918901808452922080549194909116611a4d576000548214611a4d578054602087015167ffffffffffffffff16600160a01b026001600160e01b03199091166001600160a01b038716171781555b5050604051869250600091506001600160a01b038416907fddf252ad1be2c89b69c2b068fc378daa952ba7f163c4a11628f55a4df523b3ef908390a4505060018054810190555050565b6001600160e01b03198116811461110b57600080fd5b600060208284031215611abf57600080fd5b8135610f6881611a97565b60005b83811015611ae5578181015183820152602001611acd565b83811115610bd65750506000910152565b60008151808452611b0e816020860160208601611aca565b601f01601f19169290920160200192915050565b602081526000610f686020830184611af6565b600060208284031215611b4757600080fd5b5035919050565b80356001600160a01b0381168114611b6557600080fd5b919050565b60008060408385031215611b7d57600080fd5b611b8683611b4e565b946020939093013593505050565b600080600060608486031215611ba957600080fd5b611bb284611b4e565b9250611bc060208501611b4e565b9150604084013590509250925092565b600060208284031215611be257600080fd5b610f6882611b4e565b801515811461110b57600080fd5b60008060408385031215611c0c57600080fd5b611c1583611b4e565b91506020830135611c2581611beb565b809150509250929050565b634e487b7160e01b600052604160045260246000fd5b604051601f8201601f1916810167ffffffffffffffff81118282101715611c6f57611c6f611c30565b604052919050565b600067ffffffffffffffff821115611c9157611c91611c30565b50601f01601f191660200190565b60008060008060808587031215611cb557600080fd5b611cbe85611b4e565b9350611ccc60208601611b4e565b925060408501359150606085013567ffffffffffffffff811115611cef57600080fd5b8501601f81018713611d0057600080fd5b8035611d13611d0e82611c77565b611c46565b818152886020838501011115611d2857600080fd5b8160208401602083013760006020838301015280935050505092959194509250565b60008060408385031215611d5d57600080fd5b611d6683611b4e565b9150611d7460208401611b4e565b90509250929050565b600181811c90821680611d9157607f821691505b60208210811415611db257634e487b7160e01b600052602260045260246000fd5b50919050565b6020808252818101527f4f776e61626c653a2063616c6c6572206973206e6f7420746865206f776e6572604082015260600190565b634e487b7160e01b600052601160045260246000fd5b6000816000190483118215151615611e1d57611e1d611ded565b500290565b60008219821115611e3557611e35611ded565b500190565b600060208284031215611e4c57600080fd5b8151610f6881611beb565b600060208284031215611e6957600080fd5b815167ffffffffffffffff811115611e8057600080fd5b8201601f81018413611e9157600080fd5b8051611e9f611d0e82611c77565b818152856020838501011115611eb457600080fd5b611ec5826020830160208601611aca565b95945050505050565b6001600160a01b0385811682528416602082015260408101839052608060608201819052600090611f0190830184611af6565b9695505050505050565b600060208284031215611f1d57600080fd5b8151610f6881611a9756fea26469706673582212201a15285223afa8de79cf5faa661a423c34a84fcb37dffbf02641601a6fff9a0164736f6c634300080a0033",
    "linkReferences": {}
  }
}